:020000040800F2
:10000000000002208D800008A57F0008A77F00085F
:10001000A97F0008AB7F0008AD7F0008000000004A
:10002000000000000000000000000000F150000887
:10003000AF7F00080000000091510008F551000852
:10004000DD800008DD800008DD800008DD8000081C
:10005000DD800008DD800008DD800008DD8000080C
:10006000DD800008DD800008DD800008DD800008FC
:10007000DD800008DD800008DD800008DD800008EC
:10008000DD800008DD800008DD800008DD800008DC
:10009000DD800008DD800008DD800008DD800008CC
:1000A000DD800008DD800008DD800008DD800008BC
:1000B000B17F0008DD800008DD800008DD800008D9
:1000C000DD800008DD800008DD800008DD8000089C
:1000D000DD800008DD800008DD800008DD8000088C
:1000E000DD800008DD800008DD800008DD8000087C
:1000F000DD800008DD800008DD800008DD8000086C
:10010000DD800008DD800008DD800008DD8000085B
:10011000DD800008DD800008DD800008DD8000084B
:10012000DD800008DD800008DD800008DD8000083B
:10013000DD800008DD800008DD800008DD8000082B
:10014000DD800008DD800008DD800008DD8000081B
:10015000DD800008DD800008DD800008DD8000080B
:10016000DD800008DD800008DD800008DD800008FB
:10017000DD800008DD800008DD8000080000000050
:08018000DD800008DD800008AD
:1001900010B5054C237833B9044B13B10448AFF3C1
:1001A00000800123237010BD140000200000000017
:1001B0005081000808B5034B1BB103490348AFF356
:1001C000008008BD000000001800002050810008D9
:1001D00081F0004102E000BF83F0004330B54FEAF8
:1001E00041044FEA430594EA050F08BF90EA020F65
:1001F0001FBF54EA000C55EA020C7FEA645C7FEAF8
:10020000655C00F0E2804FEA5454D4EB5555B8BF1A
:100210006D420CDD2C4480EA020281EA030382EA8B
:10022000000083EA010180EA020281EA0303362D1D
:1002300088BF30BD11F0004F4FEA01314FF4801CF0
:100240004CEA113102D0404261EB410113F0004F02
:100250004FEA03334CEA133302D0524263EB4303B9
:1002600094EA050F00F0A780A4F10104D5F1200E57
:100270000DDB02FA0EFC22FA05F2801841F10001B2
:1002800003FA0EF2801843FA05F359410EE0A5F186
:1002900020050EF1200E012A03FA0EFC28BF4CF0B7
:1002A000020C43FA05F3C01851EBE37101F000456D
:1002B00007D54FF0000EDCF1000C7EEB00006EEB7A
:1002C0000101B1F5801F1BD3B1F5001F0CD3490804
:1002D0005FEA30004FEA3C0C04F101044FEA44525B
:1002E00012F5800F80F09A80BCF1004F08BF5FEAE2
:1002F000500C50F1000041EB045141EA050130BDC2
:100300005FEA4C0C404141EB010111F4801FA4F164
:100310000104E9D191F0000F04BF01460020B1FAB9
:1003200081F308BF2033A3F10B03B3F120020CDAF1
:100330000C3208DD02F1140CC2F10C0201FA0CF0CF
:1003400021FA02F10CE002F11402D8BFC2F1200C34
:1003500001FA02F120FA0CFCDCBF41EA0C019040EA
:10036000E41AA2BF01EB0451294330BD6FEA040433
:100370001F3C1CDA0C340EDC04F11404C4F120021E
:1003800020FA04F001FA02F340EA030021FA04F330
:1003900045EA030130BDC4F10C04C4F1200220FA87
:1003A00002F001FA04F340EA0300294630BD21FAC5
:1003B00004F0294630BD94F0000F83F4801306BF8B
:1003C00081F480110134013D4EE77FEA645C18BF7F
:1003D0007FEA655C29D094EA050F08BF90EA020F16
:1003E00005D054EA000C04BF1946104630BD91EA0E
:1003F000030F1EBF0021002030BD5FEA545C05D111
:100400004000494128BF41F0004130BD14F580044F
:100410003CBF01F5801130BD01F0004545F0FE41C3
:1004200041F470014FF0000030BD7FEA645C1ABFF8
:10043000194610467FEA655C1CBF0B46024650EA2F
:10044000013406BF52EA033591EA030F41F400215B
:1004500030BD00BF90F0000F04BF0021704730B5E1
:100460004FF4806404F132044FF000054FF00001B6
:1004700050E700BF90F0000F04BF0021704730B577
:100480004FF4806404F1320410F0004548BF40424C
:100490004FF000013EE700BF42004FEAE2014FEAA1
:1004A00031014FEA02701FBF12F07F4393F07F4F7C
:1004B00081F06051704732F07F4208BF704793F07F
:1004C0007F4F04BF41F40021704730B54FF4607492
:1004D00001F0004521F000411CE700BF50EA010295
:1004E00008BF704730B54FF000050AE050EA01023E
:1004F00008BF704730B511F0004502D5404261EBAE
:1005000041014FF4806404F132045FEA915C3FF4EE
:10051000D8AE4FF003025FEADC0C18BF03325FEA8B
:10052000DC0C18BF033202EBDC02C2F1200300FA3C
:1005300003FC20FA02F001FA03FE40EA0E0021FA61
:1005400002F11444BDE600BF70B54FF0FF0C4CF44F
:10055000E06C1CEA11541DBF1CEA135594EA0C0F01
:1005600095EA0C0F00F0DEF82C4481EA030621EA3C
:100570004C5123EA4C5350EA013518BF52EA033577
:1005800041F4801143F4801338D0A0FB02CE4FF029
:100590000005E1FB02E506F00042E0FB03E54FF059
:1005A0000006E1FB03569CF0000F18BF4EF0010E51
:1005B000A4F1FF04B6F5007F64F5407404D25FEA4D
:1005C0004E0E6D4146EB060642EAC62141EA555100
:1005D0004FEAC52040EA5E504FEACE2EB4F1FD0C42
:1005E00088BFBCF5E06F1ED8BEF1004F08BF5FEAC0
:1005F000500E50F1000041EB045170BD06F0004672
:1006000046EA010140EA020081EA0301B4EB5C041E
:10061000C2BFD4EB0C0541EA045170BD41F4801116
:100620004FF0000E013C00F3AB8014F1360FDEBF3B
:10063000002001F0004170BDC4F10004203C35DA17
:100640000C341BDC04F11404C4F1200500FA05F39A
:1006500020FA04F001FA05F240EA020001F000423B
:1006600021F0004110EBD37021FA04F642EB0601B1
:100670005EEA430E08BF20EAD37070BDC4F10C04DB
:10068000C4F1200500FA04F320FA05F001FA04F29F
:1006900040EA020001F0004110EBD37041F100018B
:1006A0005EEA430E08BF20EAD37070BDC4F1200596
:1006B00000FA05F24EEA020E20FA04F301FA05F2FE
:1006C00043EA020321FA04F001F0004121FA04F2A6
:1006D00020EA020000EBD3705EEA430E08BF20EA76
:1006E000D37070BD94F0000F0FD101F000464000B0
:1006F00041EB010111F4801F08BF013CF7D041EA32
:10070000060195F0000F18BF704703F00046520035
:1007100043EB030313F4801F08BF013DF7D043EA06
:100720000603704794EA0C0F0CEA135518BF95EABC
:100730000C0F0CD050EA410618BF52EA4306D1D143
:1007400081EA030101F000414FF0000070BD50EA62
:10075000410606BF1046194652EA430619D094EAEC
:100760000C0F02D150EA013613D195EA0C0F05D1D6
:1007700052EA03361CBF104619460AD181EA03012A
:1007800001F0004141F0FE4141F470014FF00000E2
:1007900070BD41F0FE4141F4780170BD70B54FF07D
:1007A000FF0C4CF4E06C1CEA11541DBF1CEA1355FD
:1007B00094EA0C0F95EA0C0F00F0A7F8A4EB0504DF
:1007C00081EA030E52EA03354FEA013100F08880D6
:1007D0004FEA03334FF0805545EA131343EA12639F
:1007E0004FEA022245EA111545EA10654FEA002654
:1007F0000EF000419D4208BF964244F1FD0404F50D
:10080000407402D25B084FEA3202B61A65EB030568
:100810005B084FEA32024FF480104FF4002CB6EB25
:10082000020E75EB030E22BFB61A754640EA0C00A5
:100830005B084FEA3202B6EB020E75EB030E22BFE5
:10084000B61A754640EA5C005B084FEA3202B6EB26
:10085000020E75EB030E22BFB61A754640EA9C00E5
:100860005B084FEA3202B6EB020E75EB030E22BFB5
:10087000B61A754640EADC0055EA060E18D04FEA73
:10088000051545EA16754FEA06164FEAC30343EA13
:1008900052734FEAC2025FEA1C1CC0D111F4801FE0
:1008A0000BD141EA00014FF000004FF0004CB6E7D9
:1008B00011F4801F04BF01430020B4F1FD0C88BF78
:1008C000BCF5E06F3FF6AFAEB5EB030C04BFB6EB83
:1008D000020C5FEA500C50F1000041EB045170BD76
:1008E0000EF0004E4EEA113114EB5C04C2BFD4EBA3
:1008F0000C0541EA045170BD41F480114FF0000E27
:10090000013C90E645EA060E8DE60CEA135594EAA2
:100910000C0F08BF95EA0C0F3FF43BAF94EA0C0FA5
:100920000AD150EA01347FF434AF95EA0C0F7FF41A
:1009300025AF104619462CE795EA0C0F06D152EA6E
:1009400003353FF4FDAE1046194622E750EA410652
:1009500018BF52EA43067FF4C5AE50EA41047FF463
:100960000DAF52EA43057FF4EBAE12E74FEA4102C6
:1009700012F5001215D211D56FF47873B3EB6252F1
:1009800012D94FEAC12343F0004343EA505311F018
:10099000004F23FA02F018BF404270474FF00000AA
:1009A000704750EA013005D111F0004008BF6FF0E8
:1009B000004070474FF00000704700BF53B94AB97C
:1009C000002908BF00281CBF4FF0FF314FF0FF3057
:1009D00000F072B9ADF1080C6DE904CE00F006F834
:1009E000DDF804E0DDE9022304B070472DE9F047AB
:1009F000089E04468846002B4BD18A42154667D98B
:100A0000B2FA82F24AB1C2F1200701FA02F320FAE7
:100A100007F7954047EA030894404FEA154E230C28
:100A2000B8FBFEF71FFA85FC0EFB178843EA084364
:100A300007FB0CF1994209D9EB1807F1FF3080F060
:100A40001B81994240F21881023F2B445B1AA4B2E9
:100A5000B3FBFEF00EFB103344EA034400FB0CFC36
:100A6000A44509D92C1900F1FF3380F00781A44572
:100A700040F2048102382C4440EA0740A4EB0C0405
:100A800000271EB1D4400023C6E900433946BDE823
:100A9000F0878B4209D9002E00F0EB800027C6E9D1
:100AA000000138463946BDE8F087B3FA83F7002FD6
:100AB00047D18B4202D3824200F2FA80841A61EB62
:100AC000030301209846002EE0D0C6E90048DDE788
:100AD00002B9FFDEB2FA82F2002A40F08F80491B91
:100AE0004FEA154E1FFA85F80127B1FBFEFC230CD7
:100AF0000EFB1C1143EA014308FB0CF1994207D994
:100B0000EB180CF1FF3002D2994200F2CD808446FE
:100B1000591AA3B2B1FBFEF00EFB101443EA0444D1
:100B200008FB00F8A04507D92C1900F1FF3302D2C9
:100B3000A04500F2B6801846A4EB080440EA0C4039
:100B40009FE7C7F1200CBB4022FA0CFE4EEA030ED1
:100B500001FA07F420FA0CF521FA0CF34FEA1E48CB
:100B60002543B3FBF8F92C0C08FB19331FFA8EFA56
:100B700044EA034309FB0AF49C4202FA07F200FA32
:100B800007F10BD91EEB030309F1FF3080F08780DA
:100B90009C4240F28480A9F1020973441B1BADB250
:100BA000B3FBF8F008FB103345EA034400FB0AFAF4
:100BB000A24508D91EEB040400F1FF336BD2A24515
:100BC00069D90238744440EA0940A0FB0289A4EBC9
:100BD0000A044C45C2464B4654D351D0002E69D02E
:100BE000B1EB0A0564EB030404FA0CFCFD40FC4085
:100BF0004CEA0505C6E90054002747E7C2F1200387
:100C000020FA03F7954001FA02F021FA03F34FEAC4
:100C1000154E3843010CB3FBFEF71FFA85F80EFBA7
:100C2000173341EA034107FB08F38B4204FA02F44D
:100C300007D9691807F1FF3C2FD28B422DD9023F0B
:100C40002944CB1A81B2B3FBFEF00EFB103341EA0C
:100C5000034100FB08F38B4207D9691800F1FF3C00
:100C600017D28B4215D902382944C91A40EA0747DE
:100C70003BE73746304609E70746E7E61846FBE616
:100C80004145ABD2B8EB020A69EB0E0201381346BC
:100C9000A4E76046E9E7184695E76746D1E781464D
:100CA0007CE702382C4447E7ACF1020C2B442FE7D9
:100CB000384608E73746E9E6704700BF08B50B4BF2
:100CC0001A6842F400721A601A6842F480621A606C
:100CD0001A6842F480721A60032000F0E1FC0020E0
:100CE00007F024F906F07EFF002008BD003C02401A
:100CF000034A1168034B1B780B441360704700BF15
:100D0000E041002000000020014B1868704700BF40
:100D1000E041002038B50446FFF7F6FF0546B4F180
:100D2000FF3F02D0044B1B781C44FFF7EDFF401B34
:100D3000A042FAD338BD00BF000000204A4B5A68D9
:100D400022F440325A605A6841680A435A60026885
:100D5000536823F48073536002685368016943EA5F
:100D6000012353600268536823F0407353600268A4
:100D7000536881680B4353600268936823F40063EF
:100D8000936002689368C1680B439360826A374B33
:100D90009A424BD00268936823F0706393600268B4
:100DA0009368816A0B4393600268936823F0405311
:100DB000936002689368C16A0B439360026893680A
:100DC00023F00203936002689368017E43EA4103C3
:100DD000936090F82030002B33D10268536823F4DD
:100DE000006353600268D36A23F47003D36201681E
:100DF000CB6AC269013A43EA0253CB620268936844
:100E000023F4007393600268936890F8301043EA0B
:100E1000412393600268936823F4806393600268BF
:100E20009368416943EA812393607047026893683D
:100E300023F0706393600268936823F040539360DB
:100E4000BCE70268536843F4006353600268536868
:100E500023F46043536001684B68426A013A43EAF5
:100E600042334B60BEE700BF002301400100000F8A
:100E700038B310B50446036C43B1236C13F0100F64
:100E80000BD00120002384F83C3010BD06F0CCFECE
:100E90000023636484F83C30EFE7236C23F4885329
:100EA00023F0020343F0020323642046FFF746FFCA
:100EB00000206064236C23F0030343F001032364E8
:100EC000E0E701207047000082B00023019390F812
:100ED0003C30012B7DD0012380F83C3003689A68B8
:100EE00012F0010F13D19A6842F001029A603E4B52
:100EF0001B683E4AA2FB03239B0C03EB43030193B5
:100F000002E0019B013B0193019B002BF9D1026898
:100F1000936813F0010F5ED0036C23F4E06323F0B9
:100F2000010343F480730364536813F4806F05D0A6
:100F3000036C23F4405343F480530364036C13F4B1
:100F4000805F1BD0436C23F006034364002380F8CA
:100F50003C306FF022031360254B5B6813F01F0FCA
:100F600027D10368234A934219D002F58072934235
:100F700007D0214A93420BD000202DE00023436488
:100F8000E4E702F50072526812F01F0F07D0F0E795
:100F900002F58072526802F01F020F2A1ED89A686A
:100FA00012F0405F1CD19A6842F080429A600020A3
:100FB00012E003680F4A934201D000200CE09A68C7
:100FC00012F0405F0ED19A6842F080429A60002091
:100FD00002E0022000E0002002B070470020FBE7A2
:100FE0000020F9E70020F7E71000002083DE1B4314
:100FF00000230140002001400022014090F83C30D5
:10100000012B19D0012380F83C300268936823F04B
:101010000103936003689B6813F0010F07D1036C11
:1010200023F4885323F0010343F0010303640023F6
:1010300080F83C30184670470220704703689A6871
:1010400012F4806F03D09B6813F4807F1CD170B5BD
:101050000D460446FFF758FE064623681A6812F04C
:10106000020F1AD1B5F1FF3FF7D025B1FFF74CFEC3
:10107000801BA842F1D9236C43F0040323640023AE
:1010800084F83C3003202DE0036C43F0200303641C
:10109000002380F83C30012070476FF012021A6084
:1010A000236C43F40073236423689A6812F0405F52
:1010B00017D1227EBAB9DA6A12F4700F03D09B6896
:1010C00013F4806F11D1236C23F480732364236C99
:1010D00013F4805F0BD1236C43F0010323640020E1
:1010E00000E0002070BD0020FCE70020FAE70020AF
:1010F000F8E70368D86C704730B482B000230193DE
:1011000090F83C30012B00F0B780012380F83C3090
:101110000B68092B3ED90568EA689BB203EB4303D1
:101120001E3B072404FA03F322EA0303EB6005687D
:10113000EA688C680B8803EB43031E3B04FA03F355
:101140001343EB604B68062B3AD805686A6B03EBD8
:101150008303053B1F2404FA03F322EA03036B63B2
:1011600005686A6B4B6803EB8303053B0C8804FA44
:1011700003F313436B630268404B9A4250D00268FA
:101180003E4B9A4255D0002380F83C30184602B0BE
:1011900030BC704705682A699BB203EB4303072400
:1011A00004FA03F322EA03032B6105682A698C68B9
:1011B0000B8803EB430304FA03F313432B61C1E7EA
:1011C0000C2B16D805682A6B03EB8303233B1F24E3
:1011D00004FA03F322EA03032B6305682A6B4B68C6
:1011E00003EB8303233B0C8804FA03F313432B63C1
:1011F000C1E70568EA6A03EB8303413B1F2404FA55
:1012000003F322EA0303EB620568EA6A4B6803EB27
:101210008303413B0C8804FA03F31343EB62AAE710
:101220000B68122BABD1164A536843F4800353600A
:10123000A5E70B68103B012BA5D8114A536843F46E
:10124000000353600B68102B9DD10E4B1B6802F1FD
:10125000467202F52E3202F28332A2FB03239B0C6C
:1012600003EB83035A00019202E0019B013B0193CF
:10127000019B002BF9D186E7022088E7002001407E
:101280000023014010000020002800F0A18038B5A4
:10129000044690F82030D3B12268136823F002038B
:1012A0001360FFF731FD054623685A6812F0020FFC
:1012B00010D0FFF729FD401B0A28F5D9636A43F4D3
:1012C00000336362052384F82030012038BD06F026
:1012D000DFFCE1E71A6842F001021A60FFF714FD33
:1012E000054623685A6812F0010F0DD1FFF70CFD77
:1012F000401B0A28F5D9636A43F40033636205236F
:1013000084F820300120E1E7227E012A3DD01A68CE
:1013100022F080021A60637E012B3BD022681368A2
:1013200023F040031360A37E012B39D02268136899
:1013300023F020031360E37E012B37D0226813686B
:1013400043F010031360237F012B35D0226813680C
:1013500023F008031360637F012B33D022681368E6
:1013600023F004031360A368E26813432269134364
:10137000626913436268013A21681343CB6100201C
:101380006062012384F82030A0E71A6842F08002EE
:101390001A60C0E72268136843F040031360C2E795
:1013A0002268136843F020031360C4E722681368BF
:1013B00023F010031360C6E72268136843F00803A4
:1013C0001360C8E72268136843F004031360CAE798
:1013D0000120704790F82030013BDBB2012B05D98A
:1013E000436A43F4802343620120704770B4434B47
:1013F000D3F8002242F00102C3F80022D3F8002201
:1014000022F47C52C3F80022D3F80022486A42EA50
:101410000022C3F800224A6902F01F02012000FAEC
:1014200002F2D3F81C42D0430440C3F81C42CB69FB
:10143000B3B9324BD3F80C420440C3F80C42CE6827
:101440008D884C6945EA0645483443F834508E6827
:101450000C884D6944EA0644483503EBC5035C60DB
:10146000CB69012B1DD08B69002B32D1234CD4F8D2
:1014700004320340C4F804320B698BBB1F4BD3F812
:1014800014422040C3F814020B6A012B2FD01B4AD0
:10149000D2F8003223F00103C2F80032002070BC01
:1014A0007047164BD3F80C421443C3F80C420E6835
:1014B0008D884C6945EA0645483443F834508E68B7
:1014C0008C894D6944EA0644483503EBC5035C60EA
:1014D000C9E70A4CD4F804321343C4F80432CBE70A
:1014E0000648D0F814321343C0F81432CCE703494D
:1014F000D1F81C321A43C1F81C22C8E7006400402E
:1015000038B590F82030DBB2012B05D0436A43F4A4
:1015100000234362012038BD0446022380F82030B6
:101520000268136823F001031360FFF7EDFB054623
:1015300023685B6813F0010F0DD0FFF7E5FB401B3C
:101540000A28F5D9636A43F400336362052384F8FB
:1015500020300120DFE700206062DCE770B490F803
:1015600020400568AD68013CE4B2012C06D9436A0D
:1015700043F480234362012070BC704715F0E05FA4
:101580005BD0C5F30165022D3ED80124AC401C6040
:101590008B68002B3ED10E68CB68046843EA465640
:1015A00005F118031B01E65003680C6905F11806E4
:1015B00003EB06135C600B7D012B36D0D179937958
:1015C0001B0443EA0163517943EA0123147901685A
:1015D00023432C012144C1F88C31D17893781B042A
:1015E00043EA0163517843EA0123117802680B430F
:1015F0002244C2F88831026818352D01535943F04E
:10160000010353510020B7E7436A43F400034362E8
:101610000120B1E74C6843EAC403CC680668234361
:1016200005F1180424013351BEE7036803EB0613E8
:10163000596841F480715960C0E7436A43F400136C
:101640004362012098E790F82030013BDBB2012B88
:1016500001D90020704703689A6812F0806F0BD19F
:1016600000209A6812F0006F00D001309B6813F0E0
:10167000805FEFD0013070470120F2E790F8203012
:10168000013BDBB2012B05D9436A43F4802343625B
:101690000120704702685369194351610020704767
:1016A000074AD36823F4E0631B041B0C000200F418
:1016B000E060184340F0BF6040F40030D0607047F5
:1016C00000ED00E030B4174BDB68C3F30223C3F135
:1016D0000704042C28BF04241D1D062D18D9033B24
:1016E0004FF0FF3505FA04F421EA0401994005FAA8
:1016F00003F322EA0303194300280BDB0901C9B2F3
:1017000000F1604000F5614080F8001330BC704784
:101710000023E5E700F00F000901C9B2024B19549C
:10172000F4E700BF00ED00E014ED00E0002807DB67
:1017300000F01F02400901239340024A42F8203082
:10174000704700BF00E100E070B110B504460379B6
:1017500033B102232371002020610123237110BDC6
:10176000437106F019FBF4E7012070474379012B20
:101770001FD070B4012545710223037106683368D8
:1017800040F6FE74944023EA04040B6849680B4356
:1017900093402343336004682368C02101FA02F2B6
:1017A00023EA02022260057100234371184670BCCF
:1017B00070470220704730B405682C6824F48024F8
:1017C0002C60046863608368402B05D003689960CF
:1017D0000368DA6030BC704703689A600368D960B8
:1017E000F8E738B5856D90F83440012C31D00124EC
:1017F00080F8344090F83540E4B2012C04D0002346
:1018000080F83430022038BD0446022084F83500C8
:10181000002060652046FFF7CEFFE26D3F23934036
:10182000AB602268136843F01603136022685369A3
:1018300043F080035361236C23B12268136843F0A3
:10184000080313602268136843F00103136000204B
:10185000D9E70220D7E7000000230F2B00F2D78042
:10186000F0B482B039E0072200E00022B2403A43EF
:101870000234674E46F82420664A1468EA4302EAB6
:1018800004064F6817F4803F01D045EA0406614C16
:101890002660646802EA04064F6817F4003F01D02E
:1018A00045EA04065B4C6660A46802EA04064F68D9
:1018B00017F4801F01D045EA0406564CA660E46880
:1018C00022404E6816F4001F01D045EA0402514C34
:1018D000E26001330F2B00F2978001229A400C68DE
:1018E00004EA0205AA42F4D14C68022C01D0122C61
:1018F00010D1DE08083650F826C003F00704A70010
:101900000F24BC402CEA040C0C69BC4044EA0C04D3
:1019100040F8264004685F000326BE40F64306EA0E
:10192000040C4C6804F00304BC4044EA0C0404605A
:101930004C6804F1FF3CBCF1010F03D9112C01D01C
:10194000122C10D1846806EA040CCC68BC4044EA2E
:101950000C048460446824EA02024C68C4F3001456
:101960009C4014434460C26816408A68BA403243BF
:10197000C2604A6812F0805FABD000220192264A12
:10198000546C44F480445464526C02F480420192DA
:10199000019A9C08A61C1E4A52F8267003F0030206
:1019A00096000F22B24027EA02071C4A90423FF4F9
:1019B0005CAF02F5806290421AD002F580629042DC
:1019C00018D002F58062904216D002F580629042F3
:1019D00014D002F58062904212D002F580629042EB
:1019E00010D002F5806290423FF43DAF08223DE7FF
:1019F00001223BE7022239E7032237E7042235E7D9
:101A0000052233E7062231E702B0F0BC7047704789
:101A100000380140003C0140003802400000024014
:101A20000369194201D1002070470120704712B9A3
:101A300009048161704781617047436931EA03039A
:101A400001D081617047090481617047002800F06E
:101A5000BB8170B582B00446036813F0010F3BD020
:101A6000A74B9B6803F00C03042B2CD0A44B9B6862
:101A700003F00C03082B21D06368B3F5803F4FD0EF
:101A8000B3F5A02F52D09E4B1A6822F480321A6010
:101A90001A6822F480221A606368002B50D0FFF786
:101AA00033F90546964B1B6813F4003F14D1FFF73A
:101AB0002BF9401B6428F5D903208AE1904B5B6821
:101AC00013F4800FD8D08E4B1B6813F4003F03D063
:101AD0006368002B00F07A81236813F0020F55D061
:101AE000874B9B6813F00C0F3ED0854B9B6803F02F
:101AF0000C03082B33D0E368002B68D0814B012204
:101B00001A60FFF701F905467D4B1B6813F0020FC1
:101B100054D1FFF7F9F8401B0228F5D9032058E10A
:101B2000774A136843F480331360B5E7744B1A683F
:101B300042F480221A601A6842F480321A60ABE7DD
:101B4000FFF7E2F805466E4B1B6813F4003FC3D065
:101B5000FFF7DAF8401B6428F5D9032039E1684B18
:101B60005B6813F4800FC6D1654B1B6813F0020F3E
:101B700004D0E368012B01D001202AE1604A1368F8
:101B800023F0F803216943EAC1031360236813F0CB
:101B9000080F40D0636963B35B4B01221A60FFF703
:101BA000B3F80546564B5B6F13F0020F33D1FFF7C6
:101BB000ABF8401B0228F5D903200AE1504A13680C
:101BC00023F0F803216943EAC1031360DEE74D4BBC
:101BD00000221A60FFF798F80546494B1B6813F07E
:101BE000020FD3D0FFF790F8401B0228F5D903204D
:101BF000EFE0454B00221A60FFF786F80546404BA0
:101C00005B6F13F0020F06D0FFF77EF8401B02282F
:101C1000F5D90320DDE0236813F0040F79D0384BA9
:101C20001B6C13F0805F33D100230193344B1A6C8B
:101C300042F080521A641B6C03F080530193019BA5
:101C40000125324B1B6813F4807F23D0A368012B3E
:101C500034D0052B38D02A4B1A6F22F001021A67B4
:101C60001A6F22F004021A67A368002B36D0FFF720
:101C70004BF80646224B1B6F13F0020F48D1FFF7BB
:101C800043F8801B41F288339842F3D90320A0E047
:101C90000025D6E71D4A136843F480731360FFF7ED
:101CA00033F80646194B1B6813F4807FCED1FFF73B
:101CB0002BF8801B0228F5D903208AE0104A136F05
:101CC00043F001031367CFE70D4B1A6F42F0040294
:101CD0001A671A6F42F001021A67C5E7FFF714F896
:101CE0000646074B1B6F13F0020F11D0FFF70CF8DD
:101CF000801B41F288339842F3D9032069E000BF8A
:101D00000038024000004742800E47420070004009
:101D1000E5B9A369002B5BD0304A926802F00C024F
:101D2000082A58D0022B17D02D4B00221A60FEF73C
:101D3000EBFF0446294B1B6813F0007F42D0FEF7EF
:101D4000E3FF001B0228F5D9032042E0234A136C6D
:101D500023F080531364DCE7214B00221A60FEF766
:101D6000D3FF05461D4B1B6813F0007F06D0FEF71E
:101D7000CBFF401B0228F5D903202AE0E369226A41
:101D80001343626A43EA8213A26A5208013A43EAA1
:101D90000243E26A43EA0263104A5360104B012295
:101DA0001A60FEF7B1FF04460C4B1B6813F0007F6E
:101DB00006D1FEF7A9FF001B0228F5D9032008E091
:101DC000002006E0002004E001207047012000E030
:101DD000002002B070BD0120FBE700BF00380240C8
:101DE00060004742324B9B6803F00C03042B5CD02D
:101DF000082B01D02F4870472DE9F04B2C4B5A6827
:101E000002F03F025B6813F4800F2BD0284B5B6815
:101E1000C3F388131E4600275C010025E41A65EB16
:101E20000705A90141EA9461A001001B61EB0501CE
:101E3000CB0043EA5073C400A01943EB07014B02E7
:101E400043EAD0534402204619460023FEF7B6FD6C
:101E5000174B5B68C3F3014301335B00B0FBF3F046
:101E6000BDE8F08B124B5B68C3F388131E46002756
:101E70005C010025E41A65EB0705A90141EA9461BC
:101E8000A001001B61EB0501CB0043EA5073C400C5
:101E9000A01943EB07018B0243EA905384022046CA
:101EA00019460023FEF78AFDD2E70348704700BFBA
:101EB000003802400024F40000127A00002800F0EC
:101EC0009D8070B504464F4B1B6803F00F038B4297
:101ED00009D2CBB24B4A1370136803F00F038B4245
:101EE00001D0012070BD236813F0020F17D013F04A
:101EF000040F04D0444A936843F4E053936023688A
:101F000013F0080F04D0404A936843F46043936091
:101F10003D4A936823F0F003A068034393600D46A5
:101F2000236813F0010F32D06368012B21D09A1E71
:101F3000012A25D9344A126812F0020F60D03249C2
:101F40008A6822F0030213438B60FEF7DDFE06462B
:101F50002D4B9B6803F00C036268B3EB820F16D025
:101F6000FEF7D2FE801B41F288339842F0D903205D
:101F7000B8E7254A126812F4003FE0D10120B1E72A
:101F8000214A126812F0007FD9D10120AAE71D4B27
:101F90001B6803F00F03AB4209D9EAB2194B1A7060
:101FA0001B6803F00F03AB4201D001209AE72368BE
:101FB00013F0040F06D0144A936823F4E053E16849
:101FC0000B439360236813F0080F07D00E4A936801
:101FD00023F46043216943EAC1039360FFF702FFE2
:101FE000094B9B68C3F30313084AD35CD840084BE2
:101FF0001860002005F09AFF002073E70120704769
:1020000001206FE7003C024000380240A881000830
:1020100010000020014B1868704700BF100000201E
:1020200008B5FFF7F7FF044B9B68C3F38223034A0D
:10203000D35CD84008BD00BF00380240B88100081A
:102040000F2303600B4B9A6802F0030242609A6808
:1020500002F0F00282609A6802F4E052C2609B686B
:10206000DB0803F4E0530361034B1B6803F00F0329
:102070000B60704700380240003C0240836B1A68D6
:10208000D36B43F48073D363704770B582B004465A
:1020900000230193006801F0AFFA054610B128460D
:1020A00002B070BD206801F0BAFA064610B30023F2
:1020B000A3642E46DEB9019B5A1C01924FF6FF72B3
:1020C000934244D00021206801F0C0FA002841D199
:1020D0000021206801F0D2FA064600283DD10021F7
:1020E000206801F0C9F8C00FE4D00646E2E70023FB
:1020F0006364D4E70123A3640546EDB9019B5A1C30
:1021000001924FF6FF7293422AD00021206801F01D
:102110009DFA05460028C2D14FF08041206801F0A9
:10212000ADFA05460028BAD10021206801F0A4F8D4
:10213000C30FE2D01D46E0E710F0804F03D100232B
:1021400063643546ABE7012363643546A7E74FF088
:102150008075A4E74FF08055A1E74FF080559EE7CA
:102160004FF080759BE72DE9F04188B004460F469B
:10217000FEF7CAFD0646002300930193082120685C
:1021800001F090F9054618B1284608B0BDE8F08185
:10219000216D0904206801F059FA05460028F3D1A1
:1021A0004FF0FF3302930823039330230493022359
:1021B0000593002306930123079302A9206801F0E9
:1021C0005FF9206801F08BFA05460028DCD18046D3
:1021D00005E0FEF799FD801BB0F1FF3F43D020687A
:1021E000426B40F22A431A420AD1436B13F4001F98
:1021F000EFD001F021F84DF8280008F10108E8E7D8
:10220000436B13F0080F25D1436B13F0020F24D159
:10221000436B13F0200F23D140F2FF538363009AE6
:10222000130203F47F0343EA0263110A01F47F41BE
:102230000B4343EA12637B60019A130203F47F03AA
:1022400043EA0263110A01F47F410B4343EA12633C
:102250003B6099E70825856396E70225856393E748
:102260002025856390E74FF000458DE710B582B0DB
:102270000446002100910191006800F0FDFF10F07C
:10228000007F16D169462046FFF76DFF034690B9DF
:10229000019B13F4802F11D0216D0904206801F0F7
:1022A000D5F9034638B90221206801F000FA034647
:1022B00001E04FF40063184602B010BD4FF0806398
:1022C000F9E710B582B00446002100910191006841
:1022D00000F0D2FF10F0007F16D169462046FFF7CC
:1022E00042FF034690B9019B13F4803F11D0216D4A
:1022F0000904206801F0AAF9034638B900212068D2
:1023000001F0D5F9034601E04FF40063184602B02E
:1023100010BD4FF08063F9E770B581B10D460446FA
:10232000016D0904006801F034FA064608B1304630
:1023300070BD0021206800F09FFF2860F7E74FF094
:102340000066F4E7F0B587B0044699B115461E461D
:102350000A4690F83430DBB2012B71D1002383633D
:10236000AB19C16D8B420BD9836B43F00073836350
:10237000012066E0836B43F000638363012060E02B
:10238000032380F8343003680021D9620068C36BEE
:1023900043F44A7343F00203C363E36B2B48D863EF
:1023A000E36B2B48D864E36B196521687702BB089F
:1023B0008031E06BFFF715FA264B01221A60636C3F
:1023C000934200D06D024FF0FF33009301979023AA
:1023D0000293022303930023049301230593694688
:1023E000206801F04DF84FF40071206801F05AF8B0
:1023F000034698B9012E1CD98223236329462068FD
:1024000001F080F8F8B1236840F2FF529A63A36BA1
:102410001843A063012084F8340012E0226840F2DF
:10242000FF519163A06B1843A063012084F834002E
:1024300007E0812323632946206801F04BF8E1E798
:10244000022007B0F0BD0020FBE700BF77250008A1
:10245000292A00088C8525422DE9F04186B00446E2
:10246000002941D015461E460F4690F83430DBB2A5
:10247000012B75D1002383639319C26D934239D820
:10248000032380F8343003680022DA620168CB6BE2
:1024900043F4067343F00203CB63036C3249D96300
:1024A000036C3249D964036C1A65436C012B00D06C
:1024B0006D024FF40071206800F0F4FF0346F8B994
:1024C000012E28D9A02323632946206801F04AF869
:1024D00040B3236840F2FF529A63A36B1843A06392
:1024E000012084F834003CE0836B43F00063836395
:1024F000012036E0836B43F000738363012030E0FA
:10250000226840F2FF519163A06B1843A063012041
:1025100084F8340025E0902323632946206801F0E5
:1025200009F8D5E74FF00108114BC3F80080226885
:102530007602B30880323946206CFFF752F94FF02B
:10254000FF33009301969023029300250395049591
:10255000CDF814806946206800F092FF284600E01C
:10256000022006B0BDE8F0817D200008292A00087D
:102570008C852542704710B5846B236B822B0FD05E
:102580002268D36A23F00803D362236840F2FF5223
:102590009A63012384F83430204604F0EBF810BD30
:1025A000206800F0F7FF03460028E9D0A06B18432D
:1025B000A0632046FFF7DEFFE2E730B4436E9A0FD8
:1025C0000A70C3F383624A70C3F301638B7090F89F
:1025D0006630CB7090F865300B7190F864304B71B9
:1025E00090F86B301B01CB80B0F86A30CC88C3F315
:1025F00003122243CA8003F00F030B7290F8693074
:10260000DA094A72C3F380128A72C3F34012CA72A3
:10261000C3F300120A7300224A73426C002A40F08E
:1026200092809B0203F440630B61836E0A699B00F6
:1026300003F47F7313430B61C36E0A6942EA93721A
:102640000A61C3F3C2620A75C3F302634B75C26EBB
:10265000C2F30743C2F342548C75C2F38242CA7577
:102660005B0003F006030B76C26EC2F307230C7EF9
:10267000C2F3C03222430A760A69013242650C7EF7
:10268000023402FA04F444650A7AD5B20122AA405F
:102690008265520A02FB04F2C2654FF400720266C0
:1026A000C3F380124A765B0003F07E038B76C36E21
:1026B0008A7EC3F3C01422438A7603F07F03CB766D
:1026C000036F1A0EDC0F0C77C3F341744C77C3F31E
:1026D00082638B77930003F00C03CB77036FCA7F81
:1026E000C3F381542243CA77C3F3405281F82020B8
:1026F000002281F82120C3F3004381F82230036FC8
:10270000C3F3C03481F82340C3F3803481F82440FC
:10271000C3F3403481F82540C3F3003481F82640E8
:10272000C3F3812481F82740C3F3012381F82830C3
:10273000036FC3F3460381F82930012381F82A305F
:10274000104630BC7047012A0CD0036840F2FF529B
:102750009A63836B43F080538363012280F83420B3
:102760001046EEE7836E1B0403F47C130B6190F8B4
:102770006F200B6943EA02230B610A6990F86E30FF
:1027800013430B6190F86D300A6901329202426581
:10279000C2654FF400728265026681E770B590B041
:1027A00004460123ADF81230006800F04CFD00280B
:1027B0006AD0636C032B43D1636C032B5BD1636CD6
:1027C000032B1DD0BDF8121021650904206800F00C
:1027D000B3FF0546002859D10021206800F04CFDC8
:1027E00060660421206800F047FDA066082120688B
:1027F00000F042FDE0660C21206800F03DFD2067FE
:102800000421206800F038FD000DE06405A9204691
:10281000FFF7D3FE226D12040023206800F0D4FEDF
:10282000054698BB234653F8106B93E807008DE8E4
:102830000700043494E80E00304600F0E1FC25E087
:10284000206800F064FF054600BB0021206800F00E
:1028500013FD60670421206800F00EFDA0670821C9
:10286000206800F009FDE0670C21206800F004FDFD
:10287000C4F88000A0E70DF11201206800F071FF9C
:10288000054600289BD001E04FF08065284610B037
:1028900070BD000070B58AB005460024049405940C
:1028A000069407940894762309930AAB13E907006A
:1028B0008DE8070004AB0ECB286800F0A1FC124E97
:1028C0003460286800F0BBFC012333600220FEF76F
:1028D00021FA2846FFF7D9FB40B10246012085F8CE
:1028E0003400AB6B1343AB630AB070BD2846FFF7EF
:1028F00055FF024630B1012085F83400AB6B13431D
:10290000AB63F1E70020EFE7A0802542A8B110B546
:10291000044690F8343063B1032384F83430204601
:10292000FFF7B8FF0020A0632063012384F8343050
:1029300010BD037705F064FAEEE701207047436CA1
:102940000B60836C4B60C36C8B60036DCB60436D1D
:102950000B61836D4B61C36D8B61036ECB61002096
:10296000704730B58BB004460D46032380F83430F1
:10297000436C032B1CD0B1F5805F08D0B1F5006F1C
:102980000AD079B1836B43F00063836314E0836BF7
:1029900043F0805383630FE0FFF768FCA36B184399
:1029A000A06309E0FFF78DFCA36B1843A06303E06D
:1029B000836B43F080538363A36B43B1236840F27E
:1029C000FF529A63012084F834000BB030BD636875
:1029D0000493A3680593E3680693079563690893D6
:1029E000A36909930AAB13E907008DE8070004AB5C
:1029F0000ECB206800F004FC012384F83430002062
:102A0000E3E710B582B0044602A9002341F8043D73
:102A1000FFF782FC18B10346A06B1843A06301982E
:102A2000C0F3432002B010BD10B5846BE36B5B6D47
:102A3000012B03D0236C5B6D012B16D1236840F270
:102A4000FF529A632268D36B23F49D73D363A36B05
:102A500043F08043A3632046FFF7D3FF0538C0B29D
:102A6000012806D9012384F834302046FFF782FD7F
:102A700010BD206800F08EFDA36B1843A063F1E742
:102A800030B4036A23F001030362056A4268846973
:102A900024F073040B681C4325F002058B682B435C
:102AA000104DA84203D005F58065A84205D123F05A
:102AB0000803CD682B4323F004030A4DA84203D03A
:102AC00005F58065A84205D122F440724D69154391
:102AD0008A692A43426084614A684263036230BC67
:102AE000704700BF0000014030B4036A23F48073D4
:102AF0000362036A4268C46924F073040D682C43BE
:102B000023F400738D6843EA0523124DA84203D0D5
:102B100005F58065A84206D123F40063CD6843EA39
:102B2000052323F480630B4DA84203D005F580658F
:102B3000A84207D122F440524D6942EA05128D693C
:102B400042EA05124260C4614A68C263036230BC53
:102B5000704700BF0000014030B4036A23F4805383
:102B60000362036A4468C26922F4E6420D6842EADD
:102B7000052223F400538D6843EA0533094DA8422A
:102B800003D005F58065A84204D124F480444D6942
:102B900044EA85144460C2614A680264036230BC3E
:102BA000704700BF0000014070470268D36843F0DF
:102BB0000103D3600268936803F00703062B03D078
:102BC000136843F00103136000207047704770479B
:102BD0007047704710B5044603681A6912F0020F77
:102BE00011D0DA6812F0020F0DD06FF002021A61F4
:102BF0000123037703689B6913F0030F70D0FFF77D
:102C0000E6FF0023237723681A6912F0040F12D01D
:102C1000DA6812F0040F0ED06FF004021A6102237A
:102C2000237723689B6913F4407F5FD02046FFF72A
:102C3000CEFF0023237723681A6912F0080F12D001
:102C4000DA6812F0080F0ED06FF008021A61042340
:102C500023772368DB6913F0030F4ED02046FFF77C
:102C6000B6FF0023237723681A6912F0100F12D0E1
:102C7000DA6812F0100F0ED06FF010021A610823FC
:102C800023772368DB6913F4407F3DD02046FFF7AC
:102C90009EFF0023237723681A6912F0010F03D0E7
:102CA000DA6812F0010F36D123681A6912F0800F2A
:102CB00003D0DA6812F0800F34D123681A6912F059
:102CC000400F03D0DA6812F0400F32D123681A693E
:102CD00012F0200F03D0DA6812F0200F30D110BDAF
:102CE000FFF774FF2046FFF773FF8AE72046FFF7E0
:102CF0006DFF2046FFF76CFF9BE72046FFF766FF5E
:102D00002046FFF765FFACE72046FFF75FFF204650
:102D1000FFF75EFFBDE76FF001021A61204604F085
:102D2000E1FDC1E76FF080021A61204600F0CBF9A7
:102D3000C3E76FF040021A612046FFF74AFFC5E77C
:102D40006FF020021A61204600F0BCF9C7E70000CE
:102D50000368304A904212D0B0F1804F0FD0A2F5F4
:102D60007C4290420BD002F58062904207D002F57F
:102D70008062904203D002F57842904203D123F062
:102D800070034A681343234A90422AD0B0F1804F1F
:102D900027D0A2F57C42904223D002F58062904277
:102DA0001FD002F5806290421BD002F5784290421B
:102DB00017D002F57052904213D002F58062904213
:102DC0000FD002F5806290420BD0A2F5983290426B
:102DD00007D002F58062904203D002F580629042F3
:102DE00003D123F44073CA68134323F080034A6974
:102DF000134303608B68C3620B688362054B984280
:102E000003D003F58063984201D10B69036301236A
:102E10004361704700000140A8B110B5044690F826
:102E20003D305BB1022384F83D30211D2068FFF75F
:102E30008FFF012384F83D30002010BD80F83C3026
:102E4000FFF7B2FEEEE701207047A8B110B50446C7
:102E500090F83D305BB1022384F83D30211D20689D
:102E6000FFF776FF012384F83D30002010BD80F885
:102E70003C3005F015F8EEE70120704730B4036AE6
:102E800023F010030362036A4468826922F4E64275
:102E90000D6842EA052223F020038D6843EA0513FA
:102EA000114DA84203D005F58065A84206D123F054
:102EB0008003CD6843EA051323F040030A4DA8427E
:102EC00003D005F58065A84207D124F440644D691C
:102ED00044EA85048D6944EA8504446082614A6855
:102EE0008263036230BC70470000014038B590F83F
:102EF0003C30012B66D00D460446012380F83C305F
:102F0000022380F83D300C2A1AD8DFE802F00719B6
:102F10001919201919193419191947000068FFF7F0
:102F2000AFFD2268936943F00803936122689369B7
:102F300023F0040393612268936929690B43936129
:102F4000012384F83D30002084F83C0038BD00683F
:102F5000FFF794FF2268936943F40063936122684A
:102F6000936923F48063936122689369296943EA32
:102F700001239361E4E70068FFF7B6FD2268D36997
:102F800043F00803D3612268D36923F00403D361BB
:102F90002268D36929690B43D361D1E70068FFF741
:102FA000DBFD2268D36943F40063D3612268D369EF
:102FB00023F48063D3612268D369296943EA01233A
:102FC000D361BDE70220C1E710B401F01F01012366
:102FD00003FA01F4036A23EA04030362036A8A40E2
:102FE000134303625DF8044B7047000010B50446BC
:102FF00001220068FFF7E8FF23680B4A934203D0E1
:1030000002F58062934203D15A6C42F400425A6442
:103010002268936803F00703062B03D0136843F07C
:1030200001031360002010BD0000014090F83C3007
:10303000012B1CD070B4012680F83C60022380F87C
:103040003D3002685568936825F070050C682C4384
:1030500023F080054B682B4354600268936080F82E
:103060003D60002380F83C30184670BC7047022059
:10307000704790F83C30012B22D0012380F83C307F
:10308000CB6823F440738A68134323F480634A684F
:10309000134323F400630A68134323F480530A693B
:1030A000134323F400534A69134323F48043CA694A
:1030B000134302685364002380F83C30184670477D
:1030C00002207047704770470C4B1B680C4AA2FBEC
:1030D00003235A0A41F2883303FB02F35A1E4BB111
:1030E000416B134611F0800FF8D040F2FF53836319
:1030F000002070474FF00040704700BF10000020D4
:10310000D34D6210144B1B68144AA2FB03235A0AC6
:1031100041F2883303FB02F35A1ECBB1416B1346D5
:1031200011F0450FF8D0436B13F0040F08D1436B37
:1031300013F0010F08D140F2FF5383630020704762
:10314000042383631846704701238363184670473E
:103150004FF00040704700BF10000020D34D6210B8
:10316000104B1B68104AA2FB03235A0A41F2883312
:1031700003FB02F35A1E8BB1416B134611F0450F4E
:10318000F8D0436B13F0040F04D140F2FF53836374
:103190000020704704238363184670474FF00040B7
:1031A000704700BF10000020D34D6210124B1B6807
:1031B000124AA2FB03235A0A41F2883303FB02F3AB
:1031C0005A1EA3B1416B134611F0450FF8D0436B63
:1031D00013F0040F07D1436B13F0400F0AD04023C4
:1031E00083630020704740238363042070474FF0BF
:1031F000004070470020704710000020D34D62103F
:1032000084B010B402AC84E80E000B46039A13435A
:10321000049A1343059A1343069A1343079A1343D8
:10322000426822F4FD4222F07F02134343600020F3
:103230005DF8044B04B07047D0F88000704703235A
:10324000036000207047006800F0030070470B68BF
:1032500083604B688A681343CA6813430A6913433F
:10326000C26822F47F6222F00F021343C360002081
:1032700070470069C0B2704782B0002301931430D8
:1032800001440191019B186802B0704738B5514B59
:103290001B68514CA4FB03435B0A02FB03F2531E61
:1032A000002A5ED0446B1A4614F0450FF7D0436BEA
:1032B00013F0040F07D1436B13F0010F07D0012364
:1032C000836318464FE00423836318464BE00D46A2
:1032D0000446FFF7CEFFA84201D0012043E040F2B0
:1032E000FF53A36300212046FFF7C6FF3B4B03407B
:1032F000D3B300283ADB10F0804F3AD110F0005FD2
:1033000039D110F0805F38D110F0006F38D110F053
:10331000806F38D110F0807F38D110F4000F38D191
:1033200010F4800F38D110F4001F38D110F4801F32
:1033300038D110F4802F38D110F4003F38D110F478
:10334000803F38D110F4004F38D110F4804F38D17D
:1033500010F4005F38D110F0080F38D04FF400009F
:1033600001E04FF0004038BD0020FCE74FF0007056
:10337000F9E74020F7E78020F5E74FF48070F2E7A7
:103380004FF40070EFE74FF48060ECE74FF400601B
:10339000E9E74FF48050E6E74FF40050E3E74FF4DD
:1033A0008040E0E74FF40040DDE74FF40030DAE71B
:1033B0004FF48020D7E74FF40020D4E74FF480107B
:1033C000D1E74FF40010CEE74FF48000CBE74FF485
:1033D0008030C8E710000020D34D621008E0FFFDE8
:1033E00070B5254B1B68254CA4FB03435C0A41F2D6
:1033F000883303FB04F35C1EA3B3456B234615F02F
:10340000450FF8D0436B13F0040F07D1436B13F053
:10341000010F07D001238363184625E0042383634B
:10342000184621E016460D460446FFF722FFA84243
:1034300001D0012018E040F2FF53A3630021204691
:10344000FFF71AFF10F4604F08D010F4804F0CD132
:1034500010F4004F0CD04FF4805005E0000C308089
:10346000002001E04FF0004070BD4FF40050FBE73A
:103470004FF48030F8E700BF10000020D34D6210F9
:103480000B6843624B6883628B68CA6813430A699E
:1034900013434A691343C26A22F0F7021343C3621B
:1034A0000020704730B587B0054601911024029482
:1034B00040230393002304934FF48063059301A9F1
:1034C000FFF7C5FE41F2883221462846FFF7DEFEAF
:1034D00007B030BD30B587B0054601911124029484
:1034E00040230393002304934FF48063059301A9C1
:1034F000FFF7ADFE41F2883221462846FFF7C6FEAF
:1035000007B030BD30B587B0054601911224029452
:1035100040230393002304934FF48063059301A990
:10352000FFF795FE41F2883221462846FFF7AEFEAE
:1035300007B030BD30B587B005460191182402941C
:1035400040230393002304934FF48063059301A960
:10355000FFF77DFE41F2883221462846FFF796FEAE
:1035600007B030BD30B587B00546019119240294EB
:1035700040230393002304934FF48063059301A930
:10358000FFF765FE41F2883221462846FFF77EFEAE
:1035900007B030BD30B587B00546002301930C2439
:1035A00002944022039204934FF48063059301A98F
:1035B000FFF74DFE034A21462846FFF767FE07B096
:1035C00030BD00BF00E1F50530B587B0054601927A
:1035D0000724029440230393002304934FF4806351
:1035E000059301A9FFF733FE41F2883221462846B0
:1035F000FFF74CFE07B030BD10B586B0044600237F
:1036000001930293039304934FF48063059301A9FC
:10361000FFF71DFE2046FFF757FD06B010BD10B5A1
:1036200086B004464FF4D5730193082302934023D8
:103630000393002304934FF48063059301A9FFF7DC
:1036400006FE2046FFF7B2FD06B010BD30B587B0CC
:1036500005460191372402944023039300230493E9
:103660004FF48063059301A9FFF7F1FD41F2883221
:1036700021462846FFF70AFE07B030BD10B586B0D8
:10368000044641F0004141F4801101912923029345
:1036900040230393002304934FF48063059301A90F
:1036A000FFF7D5FD2046FFF75BFD06B010BD30B536
:1036B00087B005460191062402944023039300231A
:1036C00004934FF48063059301A9FFF7C0FD41F215
:1036D000883221462846FFF7D9FD07B030BD30B506
:1036E00087B00546002301933324029440220392BD
:1036F00004934FF48063059301A9FFF7A8FD41F2FD
:10370000883221462846FFF7C1FD07B030BD10B50D
:1037100086B004460023019302220292C022039243
:1037200004934FF48063059301A9FFF790FD2046B1
:10373000FFF7E8FC06B010BD10B586B00446019155
:1037400009230293C0230393002304934FF480635F
:10375000059301A9FFF77BFD2046FFF7D3FC06B0D8
:1037600010BD70B586B005460E46002301930324B4
:1037700002944022039204934FF48063059301A9BD
:10378000FFF765FD324621462846FFF729FE06B0C1
:1037900070BD30B587B0054601910D2402944023D9
:1037A0000393002304934FF48063059301A9FFF76B
:1037B0004EFD41F2883221462846FFF767FD07B0EB
:1037C00030BD0000104B5B7ADBB930B40E4B5D7A34
:1037D000EDB200245C555D7A03EB85056860587A8C
:1037E000184402725A7AD2B2501CC0B258723032A7
:1037F0000A703A234B702F238B70CC70204630BC5C
:1038000070470120704700BF3000002008B500223B
:10381000FFF7D8FF08BD842801D00330704700208F
:103820007047EFF30580003018BF0120704708B5DE
:1038300001F014F8002008BD08B501F0C7FA01280E
:1038400001D0012008BD0020FCE708B5FFF7E9FF23
:1038500010B901F03FF808BD01F042F8FBE72DE98F
:10386000F04387B004460F464569A5B1866996B115
:10387000D0F80480D0F80090B0F90800FFF7CBFF33
:1038800022690296019500903B464946404600F069
:1038900079FF059013E065682668D4F81080B4F9C4
:1038A0000800FFF7B8FF05AB019300903B461FFAF5
:1038B00088F23146284600F09EFF012803D1059882
:1038C00007B0BDE8F0830020FAE708B5034600B969
:1038D0000123184601F05EF9002008BD10B582B042
:1038E00082680AB1C36833B900224168006800F0F9
:1038F00017FA02B010BD416800680024009400F07F
:10390000C7F9F6E730B585B004460191002303936B
:10391000154602B90125FFF784FF98B1002303AAD9
:1039200001A9204600F0E2FA012818D1039BC3B197
:103930000D4B4FF080521A60BFF34F8FBFF36F8F64
:10394000002008E000232A4601A9204600F010FAD2
:10395000012802D1002005B030BDFF20FBE7FF2089
:10396000F9E70020F7E700BF04ED00E070B584B090
:10397000044602910023019349B10D4616460023E7
:103980000393B2F1FF3F0BD062B91E460AE004ABCD
:10399000802243F8102D93E8070084E807002AE00E
:1039A0004FF0FF36FFF73DFFB0B103AA01A928464B
:1039B00000F028FD01280CD000230093039BABB13D
:1039C000114B4FF080521A60BFF34F8FBFF36F8FD0
:1039D0000CE010230093F1E7324601A9284600F0DD
:1039E000EBFA01280AD066B9002300936B4693E8EE
:1039F000070084E80700204604B070BD1023009340
:103A0000F4E74023F1E700BF04ED00E000F1080314
:103A100043604FF0FF328260C360036100230360A4
:103A2000704700230361704743684B609A688A605F
:103A30009A685160996008610368013303607047B8
:103A400030B40D68B5F1FF3F02D000F1080202E08A
:103A5000026904E01A4653681C68AC42FAD95368FC
:103A60004B6099608A6051600861036801330360AC
:103A700030BC704703694268816891608268416820
:103A800051605A68824206D0002202611A68013AE7
:103A90001A601868704782685A60F5E7436A23B174
:103AA000036B1868C0F1070070470020704710B51D
:103AB000044601F02FFBA26BE36B9A4204D0002472
:103AC00001F04AFB204610BD0124F9E710B5044679
:103AD00001F020FBA36B23B1002401F03DFB204645
:103AE00010BD0124F9E770B504461646856B026CDB
:103AF0005AB903681BB100200135A56370BD406849
:103B000001F0D6F900236360F6E76EB9806804F02F
:103B10000BFB226CA3681344A3606268934219D321
:103B20002368A3600020E7E7C06804F0FDFA226C78
:103B30005242E3681344E36021688B4202D2636817
:103B40001A44E260022E01D00020D5E725B1013DE4
:103B50000020D1E70020CFE70020CDE7026C72B152
:103B600010B5C3681344C3604468A34201D303681B
:103B7000C3600C46C168204604F0D6FA10BD7047F9
:103B800038B5054601F0C6FA95F8454064B203E041
:103B900001F014F9013C64B2002C08DD6B6A33B10A
:103BA00005F1240001F07EF80028F3D0F0E7FF23B0
:103BB00085F8453001F0D0FA01F0ACFA95F84440B0
:103BC00064B203E001F0FAF8013C64B2002C08DDB5
:103BD0002B6933B105F1100001F064F80028F3D02F
:103BE000F0E7FF2385F8443001F0B6FA38BD000055
:103BF00038B540B94FF0500383F31188BFF36F8F8E
:103C0000BFF34F8FFEE704460D4601F083FA2168AB
:103C1000E26B236C03FB021060600020A063A160D4
:103C2000013A02FB0313E360FF2384F8443084F875
:103C30004530A5B923691BB901F08EFA012038BDC2
:103C400004F1100001F02EF80028F5D0084B4FF0D9
:103C500080521A60BFF34F8FBFF36F8FECE704F110
:103C60001000FFF7D3FE04F12400FFF7CFFEE3E7D7
:103C700004ED00E010B5029B0C4639B11A60D86320
:103C80001C6401211846FFF7B3FF10BD1B60F6E767
:103C900040B94FF0500383F31188BFF36F8FBFF328
:103CA0004F8FFEE710B584B0044653B192B189B985
:103CB0004FF0500383F31188BFF36F8FBFF34F8F23
:103CC000FEE74FF0500383F31188BFF36F8FBFF30C
:103CD0004F8FFEE74AB941B14FF0500383F311888B
:103CE000BFF36F8FBFF34F8FFEE748200390039819
:103CF000482808D04FF0500383F31188BFF36F8F2B
:103D0000BFF34F8FFEE720461C46012384F8463060
:103D100000949DF81830FFF7ADFF204604B010BDA9
:103D200040B94FF0500383F31188BFF36F8FBFF397
:103D30004F8FFEE7F0B583B0064611B101FB00F0EE
:103D400000E0002017460C46483001F085FB054690
:103D500050B1002380F8463000903B4600F1480205
:103D600021463046FFF786FF284603B0F0BD00002D
:103D7000F0B585B0019260B1044699B9026C8AB180
:103D80004FF0500383F31188BFF36F8FBFF34F8F52
:103D9000FEE74FF0500383F31188BFF36F8FBFF33B
:103DA0004F8FFEE7022B0BD1E26B012A08D04FF0B8
:103DB000500383F31188BFF36F8FBFF34F8FFEE77C
:103DC0001E460F4601F002F850B9019B53B14FF067
:103DD000500383F31188BFF36F8FBFF34F8FFEE75C
:103DE00000253AE0002538E0324639462046FFF704
:103DF0007AFE636A4BB9A8B13B4B4FF080521A6010
:103E0000BFF34F8FBFF36F8F0CE004F1240000F07D
:103E100049FF38B1344B4FF080521A60BFF34F8FD7
:103E2000BFF36F8F01F098F9012005B0F0BD01F0EC
:103E300093F90020F9E702A800F076FF012519E0C8
:103E4000002384F8443021E0002384F8453023E047
:103E50002046FFF795FE00F0D3FD01F05BF9A26B61
:103E6000E36B9A42C0D3022EBED0019B002BDED062
:103E7000002DE0D001F070F900F022FD01F04AF9C8
:103E800094F844305BB2B3F1FF3FD9D094F8453099
:103E90005BB2B3F1FF3FD7D001F05EF901A902A8F0
:103EA00000F04CFFC8B92046FFF701FE0028CFD034
:103EB000019904F1100000F0DBFE2046FFF760FEE0
:103EC00000F09EFD0028C8D1074B4FF080521A60C9
:103ED000BFF34F8FBFF36F8FBFE72046FFF750FE52
:103EE00000F08EFD0020A0E704ED00E02DE9F8438E
:103EF00060B1044699B9006C88B14FF0500383F368
:103F00001188BFF36F8FBFF34F8FFEE74FF0500361
:103F100083F31188BFF36F8FBFF34F8FFEE7022B40
:103F20000BD1E06B012808D04FF0500383F31188C8
:103F3000BFF36F8FBFF34F8FFEE71F469046894652
:103F400001F00EFAEFF311864FF0500383F311885E
:103F5000BFF36F8FBFF34F8FA26BE36B9A4203D314
:103F6000022F01D000200FE094F845506DB23A4680
:103F700049462046FFF7B7FDB5F1FF3F08D06B1C5F
:103F80005BB284F84530012086F31188BDE8F883E0
:103F9000636A5BB104F1240000F084FE40B1B8F123
:103FA000000F07D00120C8F80000EDE70120EBE783
:103FB0000120E9E70120E7E7F0B585B0019260B1A3
:103FC000044699B9036C8BB14FF0500383F3118809
:103FD000BFF36F8FBFF34F8FFEE74FF0500383F3B4
:103FE0001188BFF36F8FBFF34F8FFEE70F4600F0CE
:103FF000EDFE50B9019B53B14FF0500383F311888C
:10400000BFF36F8FBFF34F8FFEE700263EE0002621
:104010003CE039462046FFF7A1FD013DA563236939
:1040200023B901F099F8012005B0F0BD04F11000AA
:1040300000F038FE0028F4D0344B4FF080521A6064
:10404000BFF34F8FBFF36F8FEBE701F085F80020D0
:10405000EAE702A800F068FE012621E0002384F8C8
:10406000443029E0002384F845302BE02046FFF758
:1040700087FD00F0C5FC09E02046FFF781FD00F058
:10408000BFFC2046FFF722FD00283DD101F042F899
:10409000A56B002DBDD1019B002BD6D0002ED8D012
:1040A00001F05AF800F00CFC01F034F894F84430B8
:1040B0005BB2B3F1FF3FD1D094F845305BB2B3F1BE
:1040C000FF3FCFD001F048F801A902A800F036FE6A
:1040D0000028D1D12046FFF7F9FC0028C6D001996D
:1040E00004F1240000F0C4FD2046FFF749FD00F074
:1040F00087FC0028CAD1054B4FF080521A60BFF3ED
:104100004F8FBFF36F8FC1E700208DE704ED00E014
:1041100070B584B0019140B94FF0500383F311881A
:10412000BFF36F8FBFF34F8FFEE70446036C43B1BD
:104130004FF0500383F31188BFF36F8FBFF34F8F9E
:10414000FEE700F043FE50B9019B5BB14FF0500316
:1041500083F31188BFF36F8FBFF34F8FFEE7002506
:104160002E4651E000252E464EE0013BA363236816
:1041700013B900F057FF6060236963B104F11000C8
:1041800000F090FD38B1484B4FF080521A60BFF3F9
:104190004F8FBFF36F8F00F0DFFF0125284604B07B
:1041A00070BD45B14FF0500383F31188BFF36F8F9B
:1041B000BFF34F8FFEE700F0CFFFEFE702A800F05C
:1041C000B3FD01262AE0002384F8443032E00023C6
:1041D00084F8453034E000F09DFF606800F006FE92
:1041E000054600F0B9FF3BE02046FFF7C9FC00F0B0
:1041F00007FC09E02046FFF7C3FC00F001FC204665
:10420000FFF764FC002840D100F084FFA36B002B73
:10421000ABD1019B002BC4D0002ECFD000F09CFF6F
:1042200000F04EFB00F076FF94F844305BB2B3F13F
:10423000FF3FC8D094F845305BB2B3F1FF3FC6D022
:1042400000F08AFF01A902A800F078FD0028D1D172
:104250002046FFF73BFC0028C6D02368002BBAD0CD
:10426000019904F1240000F003FD2046FFF788FCCB
:1042700000F0C6FB0028C7D10B4B4FF080521A60EC
:10428000BFF34F8FBFF36F8FBEE7002D86D000F0D6
:1042900041FF2046FFF702FC0146606800F060FE27
:1042A00000F05AFF002579E704ED00E070B584B016
:1042B000019260B1044699B9036C8BB14FF0500381
:1042C00083F31188BFF36F8FBFF34F8FFEE74FF07B
:1042D000500383F31188BFF36F8FBFF34F8FFEE757
:1042E0000E4600F073FD50B9019B53B14FF05003DF
:1042F00083F31188BFF36F8FBFF34F8FFEE7002565
:104300003EE000253CE0E56831462046FFF726FC0C
:10431000E560636A23B900F01FFF012004B070BD9F
:1043200004F1240000F0BEFC0028F4D0344B4FF020
:1043300080521A60BFF34F8FBFF36F8FEBE700F02F
:104340000BFF0020EAE702A800F0EEFC012521E0C7
:10435000002384F8443029E0002384F845302BE022
:104360002046FFF70DFC00F04BFB09E02046FFF76D
:1043700007FC00F045FB2046FFF7A8FB00283DD1D5
:1043800000F0C8FEA36B002BBDD1019B002BD6D043
:10439000002DD8D000F0E0FE00F092FA00F0BAFE56
:1043A00094F844305BB2B3F1FF3FD1D094F845307C
:1043B0005BB2B3F1FF3FCFD000F0CEFE01A902A85F
:1043C00000F0BCFC0028D1D12046FFF77FFB00287D
:1043D000C6D0019904F1240000F04AFC2046FFF702
:1043E000CFFB00F00DFB0028CAD1054B4FF08052E7
:1043F0001A60BFF34F8FBFF36F8FC1E700208DE7C7
:1044000004ED00E02DE9F84360B1044699B9036C6E
:104410008BB14FF0500383F31188BFF36F8FBFF35D
:104420004F8FFEE74FF0500383F31188BFF36F8F78
:10443000BFF34F8FFEE71746894600F091FFEFF379
:1044400011864FF0500383F31188BFF36F8FBFF3D2
:104450004F8FD4F83880B8F1000F1DD094F8445035
:104460006DB249462046FFF779FB08F1FF33A3639D
:10447000B5F1FF3F05D06B1C5BB284F844300120DE
:104480000BE023696BB104F1100000F00BFC50B19C
:104490005FB10120386000E0002086F31188BDE89C
:1044A000F8830120F9E70120F7E70120F5E7000094
:1044B000074B9B6A1B6833B1054B9A6AD268D26876
:1044C0005268DA627047024B4FF0FF32DA6270478F
:1044D0003C0000202DE9F04780469946089D099F41
:1044E0000A9C266B02F18042013A06EB820626F016
:1044F000070600230F2B07D8C85CE21882F83400A7
:10450000CA5C0AB10133F5E7002384F84330062D75
:1045100000D90625E56265644FF0000AC4F848A09A
:10452000201DFFF77EFA04F11800FFF77AFA2461E4
:10453000C5F10705A5616462C4F84CA084F850A0D9
:104540004A464146304600F0BBFD206007B13C6062
:10455000BDE8F08770B5002407E004EB8402930007
:1045600010481844FFF752FA0134062CF5D90E4CC6
:1045700004F1BC063046FFF749FA04F1D00528469D
:10458000FFF744FA04F11400FFF740FA04F1E400E5
:10459000FFF73CFA2046FFF739FAA662C4F8F85054
:1045A00070BD00BF6C0000203C00002038B50546FF
:1045B00000F0B0FD264BD3F8FC200132C3F8FC20FC
:1045C000D3F8003173B1224BD3F804318BB9204BAF
:1045D000D3F80031DA6AEB6A9A420AD81C4BC3F866
:1045E000005106E01A4BC3F80051D3F8FC30012B00
:1045F0002AD0174CD4F808310133C4F80831EB6ADB
:1046000001229A40D4F80C110A43C4F80C2104F199
:10461000300003EB83039A00291D1044FFF704FACE
:1046200000F09AFDD4F804316BB1D4F80031DA6AA5
:10463000EB6A9A4207D2074B4FF080521A60BFF3E1
:104640004F8FBFF36F8F38BDFFF784FFD1E700BFF7
:104650003C00002004ED00E010B5044690F8513015
:1046600033B9006B00F072FF204600F06FFF10BD01
:10467000012B0AD0022BFAD04FF0500383F311889C
:10468000BFF36F8FBFF34F8FFEE700F05FFFEEE7E2
:1046900038B517E000F03EFD0D4CD4F8F030DD6881
:1046A000281DFFF7E7F9D4F8FC30013BC4F8FC30D3
:1046B000D4F81031013BC4F8103100F04DFD28460C
:1046C000FFF7CAFF024BD3F81031002BE2D138BDFF
:1046D0003C00002008B5FFF7DBFF064B1B6B012BEE
:1046E000F9D9054B4FF080521A60BFF34F8FBFF3DB
:1046F0006F8FF0E73C00002004ED00E070B5044649
:104700000E461F4BD3F81451D3F800010430FFF7C5
:10471000B1F960B91A4BD3F80021D16A012202FA2B
:1047200001F1D3F80C2122EA0102C3F80C21B4F103
:10473000FF3F12D02C44124BD3F800315C60A542ED
:1047400014D80F4DA86AD5F800110431FFF778F995
:10475000EB6AA34212D9EC6210E0002EEAD00848BE
:10476000D0F800110431FFF75FF907E0044BD3F8EC
:10477000F800D3F800110431FFF762F970BD00BFF3
:104780003C00002070B586B00B9D0C9C45B94FF0E5
:10479000500383F31188BFF36F8FBFF34F8FFEE792
:1047A00044B94FF0500383F31188BFF36F8FBFF309
:1047B0004F8FFEE754260496049E542E08D04FF0E7
:1047C000500383F31188BFF36F8FBFF34F8FFEE762
:1047D0002563022584F8515000250395029405AD08
:1047E00001950A9D0095FFF775FE2046FFF7DEFE56
:1047F000059806B070BD2DE9F04385B007468846A0
:1048000015469946900000F027FE08B3064654204E
:1048100000F022FE0446B8B10663E4B1002384F838
:104820005130039302940D9B01930C9B00934B46D4
:104830002A4641463846FFF74DFE2046FFF7B6FEB2
:10484000012005B0BDE8F083304600F07FFEE4E7CC
:104850004FF0FF30F5E74FF0FF30F2E710B588B0CA
:1048600000240594069407AA06A905A802F044FEB0
:10487000059B0293069B019300942346079A0D49DA
:104880000D48FFF77FFF08B908B010BD4FF0500387
:1048900083F31188BFF36F8FBFF34F8F074B4FF038
:1048A000FF32DA620122C3F80421C3F8144100F098
:1048B000D3FCE9E7C0810008D54600083C00002091
:1048C000034AD2F818310133C2F81831704700BFDB
:1048D0003C000020014BD3F8140170473C0000203D
:1048E00008B500F03DFD024BD3F8140108BD00BF30
:1048F0003C0000202DE9F041404BD3F81831002B4B
:104900006CD13E4BD3F814510135C3F81451CDB9D5
:104910009B6A1B6843B14FF0500383F31188BFF3C8
:104920006F8FBFF34F8FFEE7344B9A6AD3F8F810BE
:104930009962C3F8F820D3F81C210132C3F81C2176
:10494000FFF7B6FD2D4BDB6AAB423DD900242B4A65
:10495000D2F80031DB6A03EB830399000A44136B3E
:10496000012B42D9012440E00124244B9B6A1B689F
:1049700063B3224B9B6ADB68DE6873689D422AD36F
:1049800006F104084046FFF775F8B36A1BB106F15B
:104990001800FFF76FF8F36A01229A40174FD7F813
:1049A0000C110A43C7F80C2107F1300003EB830315
:1049B0009A0041461044FFF737F8F26AD7F8003101
:1049C000DB6A9A42D0D2D0E70024CEE70B4B4FF0FF
:1049D000FF32DA62BBE7094AD362B8E7074AD2F886
:1049E00020310133C2F820310024044BD3F82431A4
:1049F00003B101242046BDE8F08100BF3C00002047
:104A0000394BD3F8183143B94FF0500383F3118871
:104A1000BFF36F8FBFF34F8FFEE770B500F07AFBE7
:104A2000314BD3F81821013AC3F81821D3F81831C3
:104A3000002B54D12C4BD3F8FC3023B9002400F0C8
:104A40008BFB204670BD0024274B5B692BB3264DA2
:104A50002B6ADC6804F11800FFF70CF8261D3046BD
:104A6000FFF708F8E36A01229A40D5F80C110A43CF
:104A7000C5F80C2105F1300003EB83039A003146A1
:104A80001044FEF7D1FFE26AD5F80031DB6A9A42A2
:104A9000DAD30122C5F82421D6E70CB1FFF708FDCF
:104AA000114BD3F8204164B1FFF724FF18B10E4B2E
:104AB0000122C3F82421013CF6D10B4B0022C3F89C
:104AC0002021094BD3F824315BB1084B4FF08052C1
:104AD0001A60BFF34F8FBFF36F8F0124AFE700243D
:104AE000ADE70024ABE700BF3C00002004ED00E090
:104AF00038B550B1054689B94FF0500383F311889A
:104B0000BFF36F8FBFF34F8FFEE74FF0500383F378
:104B10001188BFF36F8FBFF34F8FFEE71B4BD3F8A6
:104B2000183143B14FF0500383F31188BFF36F8FF7
:104B3000BFF34F8FFEE70C46FFF7C2FE134BD3F8CF
:104B400014012A681444824218D9A2420CD82C605D
:104B5000FFF756FF38B90E4B4FF080521A60BFF383
:104B60004F8FBFF36F8F38BDA04201D32C60EFE7AA
:104B70002C600021201AFFF7C1FDE9E7A24201D80D
:104B8000A04201D22C60F4E72C60E1E73C00002059
:104B900004ED00E010B5B0B104460F4BD3F8183166
:104BA00043B14FF0500383F31188BFF36F8FBFF30E
:104BB0004F8FFEE7FFF784FE00212046FFF79EFDA2
:104BC000FFF71EFF38B9054B4FF080521A60BFF354
:104BD0004F8FBFF36F8F10BD3C00002004ED00E04D
:104BE000224BD3F8183123B1204B0122C3F82421E2
:104BF00070471E4A0023C2F82431D2F80C31B3FAB0
:104C000083F3DBB2C3F11F0303EB830081000A448B
:104C1000126B42B94FF0500383F31188BFF36F8FCB
:104C2000BFF34F8FFEE710B4104A9900CC18A000D4
:104C30001044446B6468446330321944880008307F
:104C4000024494420BD0094903EB83039A000A44BF
:104C5000536BDB68C1F800315DF8044B7047616845
:104C60000248142202FB03025163ECE73C000020DF
:104C700040B94FF0500383F31188BFF36F8FBFF338
:104C80004F8FFEE710B50C46054BD3F800111831D5
:104C9000FEF7D6FE01212046FFF730FD10BD00BF14
:104CA0003C00002038B5C368DC6844B94FF05003BD
:104CB00083F31188BFF36F8FBFF34F8FFEE704F1CB
:104CC00018052846FEF7D6FE154BD3F8183103BB5E
:104CD000251D2846FEF7CEFEE36A01219940104AC1
:104CE000D2F80C010143C2F80C11303203EB8303FC
:104CF000980029461044FEF797FEE26A084BD3F865
:104D00000031DB6A9A4209D90120054BC3F824011E
:104D100038BD29460348FEF787FEEEE70020F7E797
:104D20003C00002050000020034BD3F81C210260FF
:104D3000D3F81431436070473C000020F8B550B1FF
:104D4000054689B94FF0500383F31188BFF36F8F85
:104D5000BFF34F8FFEE74FF0500383F31188BFF38B
:104D60006F8FBFF34F8FFEE70C4600F0D3F9124B65
:104D7000D3F8141168680A1A2368B3F1FF3F17D0FB
:104D80002F680D4ED6F81C61B74201D0884211D968
:104D9000934203D800232360012405E09B1A23607B
:104DA0002846FFF7C1FF002400F0D6F92046F8BDE1
:104DB0000024F9E70124F7E73C000020024B012220
:104DC000C3F82421704700BF3C000020064BD3F8F5
:104DD00004313BB1044BD3F818310BB100207047BC
:104DE00002207047012070473C000020002859D065
:104DF00038B50446C26A2C49D1F80011C96A8A4202
:104E000045D28169002906DB2749D1F80011C96A1A
:104E1000C1F107018161606902EB82029100234ABE
:104E20000A44904206D0204AD2F80021D26AE262B7
:104E3000012038BD251D2846FEF71CFE80B9E26A18
:104E400002EB82039900184B0B441B6B43B90123FF
:104E500093401549D1F80C2122EA0302C1F80C2134
:104E60001148D0F80031DB6AE362012404FA03F24E
:104E7000D0F80C110A43C0F80C21303003EB830347
:104E80009A0029461044FEF7CFFD2046D1E7426C38
:104E9000054BD3F80031DB6A9A4201D20120C8E702
:104EA0000020C6E7002070473C0000206C00002076
:104EB00000284DD038B50446284AD2F80021824255
:104EC00008D04FF0500383F31188BFF36F8FBFF307
:104ED0004F8FFEE7826C42B94FF0500383F3118885
:104EE000BFF36F8FBFF34F8FFEE7013A8264C06A52
:104EF000616C88422ED07ABB251D2846FEF7BAFD8C
:104F000078B9E26A1549142303FB02131B6B43B9FA
:104F1000012303FA02F2D1F80C3123EA0203C1F8AB
:104F20000C31626CE262C2F10703A361012404FA4E
:104F300002F10A4BD3F80C010143C3F80C113033D2
:104F40002946142000FB0230FEF76EFD204638BDD6
:104F5000002070470020FAE70020F8E73C0000201E
:104F6000002859D038B50346806C40B94FF0500343
:104F700083F31188BFF36F8FBFF34F8FFEE75A6C37
:104F80008A4200D20A46D96A914201D0012800D053
:104F900038BD2248D0F80001984208D14FF05003A4
:104FA00083F31188BFF36F8FBFF34F8FFEE7DA6291
:104FB0009869002802DBC2F107029A615A69184811
:104FC000142404FB01018A42E2D11C461D1D28461F
:104FD000FEF750FD78B9E26A1049142303FB02136F
:104FE0001B6B43B9012303FA02F2D1F80C3123EA17
:104FF0000203C1F80C31E06A01228240074BD3F86A
:105000000C110A43C3F80C2130332946142202FB49
:105010000030FEF709FDBBE7704700BF3C000020F1
:105020006C000020064BD3F800312BB1044BD3F8B1
:105030000021936C01339364014BD3F80001704756
:105040003C00002082B0002301930D4B1B68B3F19C
:10505000FF3F08D04FF0500383F31188BFF36F8FE9
:10506000BFF34F8FFEE74FF0500383F31188BFF378
:105070006F8FBFF34F8F019B002BFCD002B07047A6
:105080000800002008480068006880F308884FF096
:10509000000080F3148862B661B6BFF34F8FBFF390
:1050A0006F8F00DF00BF000008ED00E0DFF80C00AC
:1050B000016841F4700101607047000088ED00E074
:1050C0004FF0807340F8043C21F0010140F8081CC7
:1050D000054B40F80C3C40F8202C6FF0020340F8E0
:1050E000243C4438704700BF4550000800000000D1
:1050F000074B19680868B0E8F04F80F30988BFF3E0
:105100006F8F4FF0000080F311887047AFF300807D
:105110003C0100204FF0500383F31188BFF36F8FE1
:10512000BFF34F8F0A4A136801331360012B00D07D
:105130007047084B1B6813F0FF0FF9D04FF0500376
:1051400083F31188BFF36F8FBFF34F8FFEE700BF6C
:105150000800002004ED00E0094B1B6843B94FF044
:10516000500383F31188BFF36F8FBFF34F8FFEE7B8
:10517000013B034A13600BB983F31188704700BFEA
:1051800008000020000000000000000000000000F7
:10519000EFF30980BFF36F8F154B1A681EF0100FE5
:1051A00008BF20ED108A20E9F04F10602DE90900BA
:1051B0004FF0500080F31188BFF34F8FBFF36F8F14
:1051C000FFF70EFD4FF0000080F3118809BC19684D
:1051D0000868B0E8F04F1EF0100F08BFB0EC108A5E
:1051E00080F30988BFF36F8F704700BFAFF3008073
:1051F0003C01002008B54FF0500383F31188BFF342
:105200006F8FBFF34F8FFFF775FB18B1034B4FF054
:1052100080521A60002383F3118808BD04ED00E07A
:10522000084A0023136008490B60084B1B680849B3
:10523000A1FB03139B09013B06490B600723136085
:10524000704700BF10E000E018E000E01000002010
:10525000D34D621014E000E0394B1A68394B9A4282
:105260000DD0374B1A68384B9A4211D14FF050038A
:1052700083F31188BFF36F8FBFF34F8FFEE74FF0BB
:10528000500383F31188BFF36F8FBFF34F8FFEE797
:1052900010B582B02D4B1A78D2B20192FF221A704B
:1052A0001B78DBB28DF803309DF8033003F0500318
:1052B000274A13700723536009E0254A5368013BCE
:1052C00053609DF803305B00DBB28DF803309DF82E
:1052D000033013F0800FF0D11D4B5B68032B08D017
:1052E0004FF0500383F31188BFF36F8FBFF34F8FDD
:1052F000FEE71B0203F4E063154A5360019BDBB237
:10530000124A1370134B1A6842F470021A601A683A
:1053100042F070421A60FFF783FF00240E4B1C60BE
:10532000FFF7C4FE0D4A136843F040431360FFF7D4
:10533000A9FEFFF755FCFFF785FE204602B010BD21
:1053400000ED00E071C20F4170C20F4100E400E0C7
:105350006401002020ED00E00800002034EF00E0B0
:10536000EFF305830F2B0FD9104A9B5CDBB2104A79
:1053700012789A4208D94FF0500383F31188BFF393
:105380006F8FBFF34F8FFEE70A4B1B6803F4E06398
:10539000074A5268934208D94FF0500383F31188AB
:1053A000BFF36F8FBFF34F8FFEE77047F0E300E06E
:1053B000640100200CED00E0104A12F0070F1AD033
:1053C000D11D21F00701C1F5705313440A460C4961
:1053D0000A60002048601344083B23F007038B60F9
:1053E00058601860981A50601360C86008614FF0E8
:1053F00000434B6170474FF47053E8E7840100208D
:105400006C01002010B4134B1A6882421BD35968F8
:105410005C18844203D140680144596018464168D1
:105420004418A24213D10B4CA468A2420DD052687A
:10543000114441601A6812680260984200D01860F6
:105440005DF8044B70471346DEE70460F5E7026041
:10545000F3E700BF6C01002070B50446FFF730FA97
:10546000394B9B68BBB1384B5B691C4262D1ACB114
:10547000083414F0070F11D024F00704083404F0A6
:1054800007035BB14FF0500383F31188BFF36F8FB5
:10549000BFF34F8FFEE7FFF78FFFE4E7002C4BD001
:1054A000294B1B69A34249D3274B1D6801E02B46BA
:1054B00015466A68A24202D22A68002AF7D1224A17
:1054C0009268AA423CD01E6808362A681A606B6847
:1054D0001B1B102B10D9281910F0070F08D04FF004
:1054E000500383F31188BFF36F8FBFF34F8FFEE735
:1054F00043606C60FFF786FF6968134A13695B1AA3
:105500001361D268934201D20F4AD3600E4B5B699C
:105510000B436B6000232B60FFF772FA16F0070F46
:1055200010D04FF0500383F31188BFF36F8FBFF398
:105530004F8FFEE70026EFE70026EDE70026EBE7BA
:105540000026E9E7304670BD6C01002080B338B515
:105550000446A0F1080550F8042C164949690A428E
:1055600008D14FF0500383F31188BFF36F8FBFF35F
:105570004F8FFEE750F8080C40B14FF0500383F313
:105580001188BFF36F8FBFF34F8FFEE722EA01024E
:1055900044F8042CFFF794F954F8041C054A1369E5
:1055A0000B4413612846FFF72DFFFFF729FA38BD9A
:1055B000704700BF6C01002070B582B000230193DA
:1055C00009E0F06C0521FEF7A3FD012868D0322127
:1055D00001A8FFF78DFAFFF77DF90190404C206894
:1055E000FBF772FC05212068FBF728FD2068FBF71C
:1055F00080FD06462068FBF701FD2068FBF764FC90
:1056000005212068FBF71AFD2068FBF772FD0546AF
:105610002068FBF7F3FC4FF4FA6000FB06F0314C16
:10562000A4FB0023C01A03EB5000C00AFAF712FFD4
:1056300000222D4BFAF7D0FDFBF798F92B4EC6F858
:10564000B00043F2D40000FB05F0A4FB0034001BC3
:1056500004EB5000C00AFAF7FDFE1FA3D3E90023B4
:10566000FAF7BAFDFBF782F90446C6F8B400002841
:10567000A7DB1E4BD86C0521FEF74AFD0128A6D1F9
:105680001A4B5B6AA3421FDA184B012283F84520AC
:10569000164BD86C00231A461946FEF769FB96E7AD
:1056A0006442336A9C420ADD012286F844200F4B93
:1056B000D86C00231A461946FEF75AFB87E70B4BB6
:1056C000002283F84420F2E7084B002283F84520AB
:1056D000DEE700BFAFF3008000000000006AB840C2
:1056E000E44100200101100000408F4004420020EE
:1056F00000B583B000230193FFF7ECF802AC44F847
:10570000040D40210448FCF798F940F2EE212046B0
:10571000FFF7EEF9F0E700BF000C024070B582B071
:1057200000221C210820FEF7FBFA434E30600022C5
:1057300024211420FEF7F4FA7060002224211E2098
:10574000FEF7EEFAB060002224212820FEF7E8FAE6
:10575000F0600024019401250095234680223749FA
:105760003748FFF748F801940095234680223549D1
:105770003548FFF740F801940095234680223349CD
:105780003348FFF738F801940095234680223149C9
:105790003148FFF730F801940095234680222F49C5
:1057A0002F48FFF728F80194032300932346802213
:1057B0002C492D48FFF71FF801940223009323463C
:1057C00080222A492A48FFF716F8D6F8D4300193E8
:1057D00000952346802227492748FFF70CF8D6F882
:1057E000D830019300952346802224492448FFF7AE
:1057F00002F8019400952346802222492248FEF7B0
:10580000FAFF019400952346402220492048FEF7E4
:10581000F2FF01940095234680221E491E48FEF7A0
:10582000EAFF01940095234680221C491C48FEF79C
:10583000E2FF02B070BD00BF04420020C881000832
:1058400079640008D881000845650008E8810008EF
:1058500085660008F4810008E96A000804820008EF
:10586000C96E0008148200084962000820820008FE
:10587000F15600082C8200089D7300084882000839
:105880004960000854820008B95500086882000881
:105890002980000870820008F168000884820008EE
:1058A00075680008F8B5064600285ED08B4BC82501
:1058B0005D6240F6B8321A624FF416721A834FF6E0
:1058C00038775F834AF20461998346F2A810D8833F
:1058D000002483F82B4083F82A4083F8294083F87A
:1058E0002840012283F82C2083F82D404FF4FA72CF
:1058F0009A865A861A86DA853222DA8683F83E40FC
:1059000083F83F4083F8424083F8434083F84040A7
:1059100083F8414083F83D4083F8454083F8444094
:1059200083F8A840C3F8B040C3F8B440C3F8AC4013
:1059300083F8A940A3F8BA70A3F8BE10A3F8C0502A
:10594000A3F8C400A3F8C81083F8B84083F8B9409E
:1059500083F8C24083F8C34083F8BC4083F8BD405D
:1059600083F8C64083F8C7407BE003220021012072
:10597000FEF7D6F9594CC4F8DC00032200210120BF
:10598000FEF7CEF9A063032200210120FEF7C8F93B
:10599000E064032200210120FEF7C2F9C4F8CC0024
:1059A000D4F8DC0000231A461946FEF7E1F9E06C52
:1059B00000231A461946FEF7DBF9A06B00231A46AE
:1059C0001946FEF7D5F9D4F8CC0000231A4619463B
:1059D000FEF7CEF96AE7032200210120FEF7A0F9C5
:1059E0003E4F3865032200210120FEF799F9C7F8E0
:1059F0009C00386D00231A461946FEF7B9F9D7F80E
:105A00009C0000231A461946FEF7B2F93AE03349E2
:105A1000680028444300134403F1280701EB4707BB
:105A20000020B88003F1340701EB4707B88040330A
:105A300001EB430398800132D2B2052AE7D9002353
:105A40000BE003EB450202F14C01244A02EB410258
:105A50004FF4004111810133DBB2012BF1D9013444
:105A6000E4B2012C10D8254604EB44021B4B13442E
:105A7000012283F84620002283F8472083F848203B
:105A8000002EA8D00022D8E7002405E0144B002205
:105A900043F834200134E4B2012C11D8002EF5D1A2
:105AA000032200210120FEF73BF90D4B03EBC40359
:105AB0005860586800231A461946FEF759F9E5E779
:105AC00056B9084B084ADA6000229A60074A5A60C1
:105AD000074A1A60074ADA61F8BD00BF0442002095
