:020000040800F2
:10000000000002202D6600084565000847650008CD
:10001000496500084B6500084D65000800000000B8
:10002000000000000000000000000000513B00083C
:100030004F65000800000000F13B0008553C000837
:100040007D6600087D6600087D6600087D66000804
:100050007D6600087D6600087D6600087D660008F4
:100060007D6600087D6600087D6600087D660008E4
:100070007D6600087D6600087D6600087D660008D4
:100080007D6600087D6600087D6600087D660008C4
:100090007D6600087D6600087D6600087D660008B4
:1000A0007D6600087D6600087D6600087D660008A4
:1000B000516500087D6600087D6600087D660008C1
:1000C0007D6600087D6600087D6600087D66000884
:1000D0007D6600087D6600087D6600087D66000874
:1000E0007D6600087D6600087D6600087D66000864
:1000F0007D6600087D6600087D6600087D66000854
:100100007D6600087D6600087D6600087D66000843
:100110007D6600087D6600087D6600087D66000833
:100120007D6600087D6600087D6600087D66000823
:100130007D6600087D6600087D6600087D66000813
:100140007D6600087D6600087D6600087D66000803
:100150007D6600087D6600087D6600087D660008F3
:100160007D6600087D6600087D6600087D660008E3
:100170007D6600087D6600087D66000800000000BE
:080180007D6600087D660008A1
:1001900010B5054C237833B9044B13B10448AFF3C1
:1001A00000800123237010BD10000020000000001B
:1001B000F066000808B5034B1BB103490348AFF3D1
:1001C000008008BD0000000014000020F066000858
:1001D00081F0004102E000BF83F0004330B54FEAF8
:1001E00041044FEA430594EA050F08BF90EA020F65
:1001F0001FBF54EA000C55EA020C7FEA645C7FEAF8
:10020000655C00F0E2804FEA5454D4EB5555B8BF1A
:100210006D420CDD2C4480EA020281EA030382EA8B
:10022000000083EA010180EA020281EA0303362D1D
:1002300088BF30BD11F0004F4FEA01314FF4801CF0
:100240004CEA113102D0404261EB410113F0004F02
:100250004FEA03334CEA133302D0524263EB4303B9
:1002600094EA050F00F0A780A4F10104D5F1200E57
:100270000DDB02FA0EFC22FA05F2801841F10001B2
:1002800003FA0EF2801843FA05F359410EE0A5F186
:1002900020050EF1200E012A03FA0EFC28BF4CF0B7
:1002A000020C43FA05F3C01851EBE37101F000456D
:1002B00007D54FF0000EDCF1000C7EEB00006EEB7A
:1002C0000101B1F5801F1BD3B1F5001F0CD3490804
:1002D0005FEA30004FEA3C0C04F101044FEA44525B
:1002E00012F5800F80F09A80BCF1004F08BF5FEAE2
:1002F000500C50F1000041EB045141EA050130BDC2
:100300005FEA4C0C404141EB010111F4801FA4F164
:100310000104E9D191F0000F04BF01460020B1FAB9
:1003200081F308BF2033A3F10B03B3F120020CDAF1
:100330000C3208DD02F1140CC2F10C0201FA0CF0CF
:1003400021FA02F10CE002F11402D8BFC2F1200C34
:1003500001FA02F120FA0CFCDCBF41EA0C019040EA
:10036000E41AA2BF01EB0451294330BD6FEA040433
:100370001F3C1CDA0C340EDC04F11404C4F120021E
:1003800020FA04F001FA02F340EA030021FA04F330
:1003900045EA030130BDC4F10C04C4F1200220FA87
:1003A00002F001FA04F340EA0300294630BD21FAC5
:1003B00004F0294630BD94F0000F83F4801306BF8B
:1003C00081F480110134013D4EE77FEA645C18BF7F
:1003D0007FEA655C29D094EA050F08BF90EA020F16
:1003E00005D054EA000C04BF1946104630BD91EA0E
:1003F000030F1EBF0021002030BD5FEA545C05D111
:100400004000494128BF41F0004130BD14F580044F
:100410003CBF01F5801130BD01F0004545F0FE41C3
:1004200041F470014FF0000030BD7FEA645C1ABFF8
:10043000194610467FEA655C1CBF0B46024650EA2F
:10044000013406BF52EA033591EA030F41F400215B
:1004500030BD00BF90F0000F04BF0021704730B5E1
:100460004FF4806404F132044FF000054FF00001B6
:1004700050E700BF90F0000F04BF0021704730B577
:100480004FF4806404F1320410F0004548BF40424C
:100490004FF000013EE700BF42004FEAE2014FEAA1
:1004A00031014FEA02701FBF12F07F4393F07F4F7C
:1004B00081F06051704732F07F4208BF704793F07F
:1004C0007F4F04BF41F40021704730B54FF4607492
:1004D00001F0004521F000411CE700BF50EA010295
:1004E00008BF704730B54FF000050AE050EA01023E
:1004F00008BF704730B511F0004502D5404261EBAE
:1005000041014FF4806404F132045FEA915C3FF4EE
:10051000D8AE4FF003025FEADC0C18BF03325FEA8B
:10052000DC0C18BF033202EBDC02C2F1200300FA3C
:1005300003FC20FA02F001FA03FE40EA0E0021FA61
:1005400002F11444BDE600BF70B54FF0FF0C4CF44F
:10055000E06C1CEA11541DBF1CEA135594EA0C0F01
:1005600095EA0C0F00F0DEF82C4481EA030621EA3C
:100570004C5123EA4C5350EA013518BF52EA033577
:1005800041F4801143F4801338D0A0FB02CE4FF029
:100590000005E1FB02E506F00042E0FB03E54FF059
:1005A0000006E1FB03569CF0000F18BF4EF0010E51
:1005B000A4F1FF04B6F5007F64F5407404D25FEA4D
:1005C0004E0E6D4146EB060642EAC62141EA555100
:1005D0004FEAC52040EA5E504FEACE2EB4F1FD0C42
:1005E00088BFBCF5E06F1ED8BEF1004F08BF5FEAC0
:1005F000500E50F1000041EB045170BD06F0004672
:1006000046EA010140EA020081EA0301B4EB5C041E
:10061000C2BFD4EB0C0541EA045170BD41F4801116
:100620004FF0000E013C00F3AB8014F1360FDEBF3B
:10063000002001F0004170BDC4F10004203C35DA17
:100640000C341BDC04F11404C4F1200500FA05F39A
:1006500020FA04F001FA05F240EA020001F000423B
:1006600021F0004110EBD37021FA04F642EB0601B1
:100670005EEA430E08BF20EAD37070BDC4F10C04DB
:10068000C4F1200500FA04F320FA05F001FA04F29F
:1006900040EA020001F0004110EBD37041F100018B
:1006A0005EEA430E08BF20EAD37070BDC4F1200596
:1006B00000FA05F24EEA020E20FA04F301FA05F2FE
:1006C00043EA020321FA04F001F0004121FA04F2A6
:1006D00020EA020000EBD3705EEA430E08BF20EA76
:1006E000D37070BD94F0000F0FD101F000464000B0
:1006F00041EB010111F4801F08BF013CF7D041EA32
:10070000060195F0000F18BF704703F00046520035
:1007100043EB030313F4801F08BF013DF7D043EA06
:100720000603704794EA0C0F0CEA135518BF95EABC
:100730000C0F0CD050EA410618BF52EA4306D1D143
:1007400081EA030101F000414FF0000070BD50EA62
:10075000410606BF1046194652EA430619D094EAEC
:100760000C0F02D150EA013613D195EA0C0F05D1D6
:1007700052EA03361CBF104619460AD181EA03012A
:1007800001F0004141F0FE4141F470014FF00000E2
:1007900070BD41F0FE4141F4780170BD70B54FF07D
:1007A000FF0C4CF4E06C1CEA11541DBF1CEA1355FD
:1007B00094EA0C0F95EA0C0F00F0A7F8A4EB0504DF
:1007C00081EA030E52EA03354FEA013100F08880D6
:1007D0004FEA03334FF0805545EA131343EA12639F
:1007E0004FEA022245EA111545EA10654FEA002654
:1007F0000EF000419D4208BF964244F1FD0404F50D
:10080000407402D25B084FEA3202B61A65EB030568
:100810005B084FEA32024FF480104FF4002CB6EB25
:10082000020E75EB030E22BFB61A754640EA0C00A5
:100830005B084FEA3202B6EB020E75EB030E22BFE5
:10084000B61A754640EA5C005B084FEA3202B6EB26
:10085000020E75EB030E22BFB61A754640EA9C00E5
:100860005B084FEA3202B6EB020E75EB030E22BFB5
:10087000B61A754640EADC0055EA060E18D04FEA73
:10088000051545EA16754FEA06164FEAC30343EA13
:1008900052734FEAC2025FEA1C1CC0D111F4801FE0
:1008A0000BD141EA00014FF000004FF0004CB6E7D9
:1008B00011F4801F04BF01430020B4F1FD0C88BF78
:1008C000BCF5E06F3FF6AFAEB5EB030C04BFB6EB83
:1008D000020C5FEA500C50F1000041EB045170BD76
:1008E0000EF0004E4EEA113114EB5C04C2BFD4EBA3
:1008F0000C0541EA045170BD41F480114FF0000E27
:10090000013C90E645EA060E8DE60CEA135594EAA2
:100910000C0F08BF95EA0C0F3FF43BAF94EA0C0FA5
:100920000AD150EA01347FF434AF95EA0C0F7FF41A
:1009300025AF104619462CE795EA0C0F06D152EA6E
:1009400003353FF4FDAE1046194622E750EA410652
:1009500018BF52EA43067FF4C5AE50EA41047FF463
:100960000DAF52EA43057FF4EBAE12E74FEA4102C6
:1009700012F5001215D211D56FF47873B3EB6252F1
:1009800012D94FEAC12343F0004343EA505311F018
:10099000004F23FA02F018BF404270474FF00000AA
:1009A000704750EA013005D111F0004008BF6FF0E8
:1009B000004070474FF00000704700BF53B94AB97C
:1009C000002908BF00281CBF4FF0FF314FF0FF3057
:1009D00000F072B9ADF1080C6DE904CE00F006F834
:1009E000DDF804E0DDE9022304B070472DE9F047AB
:1009F000089E04468846002B4BD18A42154667D98B
:100A0000B2FA82F24AB1C2F1200701FA02F320FAE7
:100A100007F7954047EA030894404FEA154E230C28
:100A2000B8FBFEF71FFA85FC0EFB178843EA084364
:100A300007FB0CF1994209D9EB1807F1FF3080F060
:100A40001B81994240F21881023F2B445B1AA4B2E9
:100A5000B3FBFEF00EFB103344EA034400FB0CFC36
:100A6000A44509D92C1900F1FF3380F00781A44572
:100A700040F2048102382C4440EA0740A4EB0C0405
:100A800000271EB1D4400023C6E900433946BDE823
:100A9000F0878B4209D9002E00F0EB800027C6E9D1
:100AA000000138463946BDE8F087B3FA83F7002FD6
:100AB00047D18B4202D3824200F2FA80841A61EB62
:100AC000030301209846002EE0D0C6E90048DDE788
:100AD00002B9FFDEB2FA82F2002A40F08F80491B91
:100AE0004FEA154E1FFA85F80127B1FBFEFC230CD7
:100AF0000EFB1C1143EA014308FB0CF1994207D994
:100B0000EB180CF1FF3002D2994200F2CD808446FE
:100B1000591AA3B2B1FBFEF00EFB101443EA0444D1
:100B200008FB00F8A04507D92C1900F1FF3302D2C9
:100B3000A04500F2B6801846A4EB080440EA0C4039
:100B40009FE7C7F1200CBB4022FA0CFE4EEA030ED1
:100B500001FA07F420FA0CF521FA0CF34FEA1E48CB
:100B60002543B3FBF8F92C0C08FB19331FFA8EFA56
:100B700044EA034309FB0AF49C4202FA07F200FA32
:100B800007F10BD91EEB030309F1FF3080F08780DA
:100B90009C4240F28480A9F1020973441B1BADB250
:100BA000B3FBF8F008FB103345EA034400FB0AFAF4
:100BB000A24508D91EEB040400F1FF336BD2A24515
:100BC00069D90238744440EA0940A0FB0289A4EBC9
:100BD0000A044C45C2464B4654D351D0002E69D02E
:100BE000B1EB0A0564EB030404FA0CFCFD40FC4085
:100BF0004CEA0505C6E90054002747E7C2F1200387
:100C000020FA03F7954001FA02F021FA03F34FEAC4
:100C1000154E3843010CB3FBFEF71FFA85F80EFBA7
:100C2000173341EA034107FB08F38B4204FA02F44D
:100C300007D9691807F1FF3C2FD28B422DD9023F0B
:100C40002944CB1A81B2B3FBFEF00EFB103341EA0C
:100C5000034100FB08F38B4207D9691800F1FF3C00
:100C600017D28B4215D902382944C91A40EA0747DE
:100C70003BE73746304609E70746E7E61846FBE616
:100C80004145ABD2B8EB020A69EB0E0201381346BC
:100C9000A4E76046E9E7184695E76746D1E781464D
:100CA0007CE702382C4447E7ACF1020C2B442FE7D9
:100CB000384608E73746E9E6704700BF08B50B4BF2
:100CC0001A6842F400721A601A6842F480621A606C
:100CD0001A6842F480721A60032000F0CDFC0020F4
:100CE00005F0F4FB05F09EFA002008BD003C024030
:100CF000034A1168034B1B780B441360704700BF15
:100D0000CC3F002000000020014B1868704700BF56
:100D1000CC3F00204A4B5A6822F440325A605A684D
:100D200041680A435A600268536823F48073536031
:100D300002685368016943EA0123536002685368FB
:100D400023F0407353600268536881680B4353601B
:100D50000268936823F40063936002689368C16833
:100D60000B439360826A374B9A424BD00268936878
:100D700023F07063936002689368816A0B43936009
:100D80000268936823F04053936002689368C16AD5
:100D90000B4393600268936823F002039360026838
:100DA0009368017E43EA4103936090F82030002B62
:100DB00033D10268536823F4006353600268D36A36
:100DC00023F47003D3620168CB6AC269013A43EA33
:100DD0000253CB620268936823F400739360026845
:100DE000936890F8301043EA412393600268936857
:100DF00023F48063936002689368416943EA812326
:100E0000936070470268936823F070639360026890
:100E1000936823F040539360BCE70268536843F43F
:100E2000006353600268536823F4604353600168B1
:100E30004B68426A013A43EA42334B60BEE700BF67
:100E4000002301400100000F38B310B50446036CC5
:100E500043B1236C13F0100F0BD00120002384F852
:100E60003C3010BD05F000FA0023636484F83C3088
:100E7000EFE7236C23F4885323F0020343F00203CB
:100E800023642046FFF746FF00206064236C23F0B4
:100E9000030343F001032364E0E7012070470000EF
:100EA00082B00023019390F83C30012B7DD00123C8
:100EB00080F83C3003689A6812F0010F13D19A68E9
:100EC00042F001029A603E4B1B683E4AA2FB03239C
:100ED0009B0C03EB4303019302E0019B013B019355
:100EE000019B002BF9D10268936813F0010F5ED0CB
:100EF000036C23F4E06323F0010343F48073036481
:100F0000536813F4806F05D0036C23F4405343F40B
:100F100080530364036C13F4805F1BD0436C23F095
:100F200006034364002380F83C306FF02203136013
:100F3000254B5B6813F01F0F27D10368234A9342A8
:100F400019D002F58072934207D0214A93420BD008
:100F500000202DE000234364E4E702F500725268AC
:100F600012F01F0F07D0F0E702F58072526802F00E
:100F70001F020F2A1ED89A6812F0405F1CD19A688F
:100F800042F080429A60002012E003680F4A9342C8
:100F900001D000200CE09A6812F0405F0ED19A68F0
:100FA00042F080429A60002002E0022000E000202F
:100FB00002B070470020FBE70020F9E70020F7E7C8
:100FC0000C00002083DE1B43002301400020014071
:100FD0000022014090F83C30012B19D0012380F809
:100FE0003C300268936823F00103936003689B68B8
:100FF00013F0010F07D1036C23F4885323F001038E
:1010000043F001030364002380F83C301846704726
:101010000220704703689A6812F4806F03D09B68BF
:1010200013F4807F1CD170B50D460446FFF76CFEAB
:10103000064623681A6812F0020F1AD1B5F1FF3F75
:10104000F7D025B1FFF760FE801BA842F1D9236CD1
:1010500043F004032364002384F83C3003202DE094
:10106000036C43F020030364002380F83C3001202C
:1010700070476FF012021A60236C43F4007323640C
:1010800023689A6812F0405F17D1227EBAB9DA6AF3
:1010900012F4700F03D09B6813F4806F11D1236C8E
:1010A00023F480732364236C13F4805F0BD1236CCF
:1010B00043F001032364002000E0002070BD002005
:1010C000FCE70020FAE70020F8E70368D86C7047D7
:1010D00030B482B00023019390F83C30012B00F033
:1010E000B780012380F83C300B68092B3ED9056896
:1010F000EA689BB203EB43031E3B072404FA03F3A5
:1011000022EA0303EB600568EA688C680B8803EB4E
:1011100043031E3B04FA03F31343EB604B68062BB7
:101120003AD805686A6B03EB8303053B1F2404FA76
:1011300003F322EA03036B6305686A6B4B6803EBF6
:101140008303053B0C8804FA03F313436B630268C3
:10115000404B9A4250D002683E4B9A4255D00023F1
:1011600080F83C30184602B030BC704705682A69E8
:101170009BB203EB4303072404FA03F322EA0303BD
:101180002B6105682A698C680B8803EB430304FA1A
:1011900003F313432B61C1E70C2B16D805682A6BA8
:1011A00003EB8303233B1F2404FA03F322EA030324
:1011B0002B6305682A6B4B6803EB8303233B0C8886
:1011C00004FA03F313432B63C1E70568EA6A03EBF0
:1011D0008303413B1F2404FA03F322EA0303EB6277
:1011E0000568EA6A4B6803EB8303413B0C8804FA09
:1011F00003F31343EB62AAE70B68122BABD1164A39
:10120000536843F480035360A5E70B68103B012B40
:10121000A5D8114A536843F4000353600B68102BA0
:101220009DD10E4B1B6802F1467202F52E3202F27E
:101230008332A2FB03239B0C03EB83035A0001922E
:1012400002E0019B013B0193019B002BF9D186E752
:10125000022088E700200140002301400C0000200C
:10126000002800F0A18038B5044690F82030D3B1B2
:101270002268136823F002031360FFF745FD05465B
:1012800023685A6812F0020F10D0FFF73DFD401B93
:101290000A28F5D9636A43F400336362052384F8AE
:1012A0002030012038BD05F013F8E1E71A6842F05C
:1012B00001021A60FFF728FD054623685A6812F0FC
:1012C000010F0DD1FFF720FD401B0A28F5D9636AF5
:1012D00043F400336362052384F820300120E1E702
:1012E000227E012A3DD01A6822F080021A60637EB5
:1012F000012B3BD02268136823F040031360A37EC8
:10130000012B39D02268136823F020031360E37E99
:10131000012B37D02268136843F010031360237F3A
:10132000012B35D02268136823F008031360637F14
:10133000012B33D02268136823F004031360A368E1
:10134000E268134322691343626913436268013AF6
:1013500021681343CB6100206062012384F82030B0
:10136000A0E71A6842F080021A60C0E7226813689A
:1013700043F040031360C2E72268136843F0200380
:101380001360C4E72268136823F010031360C6E7F4
:101390002268136843F008031360C8E722681368E3
:1013A00043F004031360CAE70120704790F820302F
:1013B000013BDBB2012B05D9436A43F4802343622E
:1013C0000120704770B4434BD3F8002242F0010271
:1013D000C3F80022D3F8002222F47C52C3F8002282
:1013E000D3F80022486A42EA0022C3F800224A6980
:1013F00002F01F02012000FA02F2D3F81C42D0438F
:101400000440C3F81C42CB69B3B9324BD3F80C4249
:101410000440C3F80C42CE688D884C6945EA064505
:10142000483443F834508E680C884D6944EA0644C9
:10143000483503EBC5035C60CB69012B1DD08B697C
:10144000002B32D1234CD4F804320340C4F80432C8
:101450000B698BBB1F4BD3F814422040C3F8140216
:101460000B6A012B2FD01B4AD2F8003223F0010364
:10147000C2F80032002070BC7047164BD3F80C4203
:101480001443C3F80C420E688D884C6945EA064542
:10149000483443F834508E688C894D6944EA0644D8
:1014A000483503EBC5035C60C9E70A4CD4F8043245
:1014B0001343C4F80432CBE70648D0F81432134380
:1014C000C0F81432CCE70349D1F81C321A43C1F8F2
:1014D0001C22C8E70064004038B590F82030DBB229
:1014E000012B05D0436A43F400234362012038BD39
:1014F0000446022380F820300268136823F00103B9
:101500001360FFF701FC054623685B6813F0010FC9
:101510000DD0FFF7F9FB401B0A28F5D9636A43F4A5
:1015200000336362052384F820300120DFE70020C8
:101530006062DCE770B490F820400568AD68013C5B
:10154000E4B2012C06D9436A43F4802343620120AC
:1015500070BC704715F0E05F5BD0C5F30165022DEC
:101560003ED80124AC401C608B68002B3ED10E6835
:10157000CB68046843EA465605F118031B01E650A0
:1015800003680C6905F1180603EB06135C600B7D1C
:10159000012B36D0D17993791B0443EA0163517949
:1015A00043EA01231479016823432C012144C1F843
:1015B0008C31D17893781B0443EA0163517843EA74
:1015C0000123117802680B432244C2F88831026873
:1015D00018352D01535943F0010353510020B7E74B
:1015E000436A43F4000343620120B1E74C6843EAD5
:1015F000C403CC680668234305F118042401335161
:10160000BEE7036803EB0613596841F48071596023
:10161000C0E7436A43F400134362012098E790F85F
:101620002030013BDBB2012B01D900207047036859
:101630009A6812F0806F0BD100209A6812F0006F48
:1016400000D001309B6813F0805FEFD0013070470D
:101650000120F2E790F82030013BDBB2012B05D9E5
:10166000436A43F480234362012070470268536950
:101670001943516100207047074AD36823F4E0639F
:101680001B041B0C000200F4E060184340F0BF6034
:1016900040F40030D060704700ED00E030B4174BEC
:1016A000DB68C3F30223C3F10704042C28BF04241E
:1016B0001D1D062D18D9033B4FF0FF3505FA04F424
:1016C00021EA0401994005FA03F322EA03031943CE
:1016D00000280BDB0901C9B200F1604000F5614050
:1016E00080F8001330BC70470023E5E700F00F00DE
:1016F0000901C9B2024B1954F4E700BF00ED00E044
:1017000014ED00E0002807DB00F01F024009012370
:101710009340024A42F82030704700BF00E100E0E9
:1017200070B110B50446037933B102232371002050
:1017300020610123237110BD437104F04DFEF4E7D5
:10174000012070474379012B1FD070B401254571EA
:10175000022303710668336840F6FE74944023EA5E
:1017600004040B6849680B439340234333600468C7
:101770002368C02101FA02F223EA02022260057105
:1017800000234371184670BC704702207047000068
:1017900000230F2B00F2D780F0B482B039E007228B
:1017A00000E00022B2403A430234674E46F824205B
:1017B000664A1468EA4302EA04064F6817F4803F59
:1017C00001D045EA0406614C2660646802EA04061A
:1017D0004F6817F4003F01D045EA04065B4C666091
:1017E000A46802EA04064F6817F4801F01D045EA96
:1017F0000406564CA660E46822404E6816F4001FAA
:1018000001D045EA0402514CE26001330F2B00F293
:10181000978001229A400C6804EA0205AA42F4D19A
:101820004C68022C01D0122C10D1DE08083650F87A
:1018300026C003F00704A7000F24BC402CEA040CC8
:101840000C69BC4044EA0C0440F8264004685F0080
:101850000326BE40F64306EA040C4C6804F0030479
:10186000BC4044EA0C0404604C6804F1FF3CBCF149
:10187000010F03D9112C01D0122C10D1846806EA73
:10188000040CCC68BC4044EA0C048460446824EA3C
:1018900002024C68C4F300149C4014434460C268C4
:1018A00016408A68BA403243C2604A6812F0805FCC
:1018B000ABD000220192264A546C44F48044546414
:1018C000526C02F480420192019A9C08A61C1E4AA6
:1018D00052F8267003F0030296000F22B24027EA66
:1018E00002071C4A90423FF45CAF02F580629042CE
:1018F0001AD002F58062904218D002F580629042C0
:1019000016D002F58062904214D002F580629042B7
:1019100012D002F58062904210D002F580629042AF
:101920003FF43DAF08223DE701223BE7022239E7C1
:10193000032237E7042235E7052233E7062231E7A1
:1019400002B0F0BC7047704700380140003C0140D5
:10195000003802400000024012B90904816170475A
:1019600081617047436931EA030301D081617047A7
:101970000904816170470000002800F0BB8170B548
:1019800082B00446036813F0010F3BD0A74B9B685D
:1019900003F00C03042B2CD0A44B9B6803F00C0326
:1019A000082B21D06368B3F5803F4FD0B3F5A02F4B
:1019B00052D09E4B1A6822F480321A601A6822F4C0
:1019C00080221A606368002B50D0FFF79DF905460E
:1019D000964B1B6813F4003F14D1FFF795F9401B99
:1019E0006428F5D903208AE1904B5B6813F4800FDB
:1019F000D8D08E4B1B6813F4003F03D06368002BD4
:101A000000F07A81236813F0020F55D0874B9B6852
:101A100013F00C0F3ED0854B9B6803F00C03082B92
:101A200033D0E368002B68D0814B01221A60FFF7A6
:101A30006BF905467D4B1B6813F0020F54D1FFF77D
:101A400063F9401B0228F5D9032058E1774A13684F
:101A500043F480331360B5E7744B1A6842F4802274
:101A60001A601A6842F480321A60ABE7FFF74CF94B
:101A700005466E4B1B6813F4003FC3D0FFF744F9D3
:101A8000401B6428F5D9032039E1684B5B6813F4E7
:101A9000800FC6D1654B1B6813F0020F04D0E368BA
:101AA000012B01D001202AE1604A136823F0F803DA
:101AB000216943EAC1031360236813F0080F40D083
:101AC000636963B35B4B01221A60FFF71DF905469A
:101AD000564B5B6F13F0020F33D1FFF715F9401B24
:101AE0000228F5D903200AE1504A136823F0F803CD
:101AF000216943EAC1031360DEE74D4B00221A60FF
:101B0000FFF702F90546494B1B6813F0020FD3D0CB
:101B1000FFF7FAF8401B0228F5D90320EFE0454B08
:101B200000221A60FFF7F0F80546404B5B6F13F098
:101B3000020F06D0FFF7E8F8401B0228F5D9032072
:101B4000DDE0236813F0040F79D0384B1B6C13F0E1
:101B5000805F33D100230193344B1A6C42F08052E2
:101B60001A641B6C03F080530193019B0125324BD7
:101B70001B6813F4807F23D0A368012B34D0052B7E
:101B800038D02A4B1A6F22F001021A671A6F22F01E
:101B900004021A67A368002B36D0FFF7B5F8064693
:101BA000224B1B6F13F0020F48D1FFF7ADF8801BDB
:101BB00041F288339842F3D90320A0E00025D6E70C
:101BC0001D4A136843F480731360FFF79DF80646BF
:101BD000194B1B6813F4807FCED1FFF795F8801B5B
:101BE0000228F5D903208AE0104A136F43F001035D
:101BF0001367CFE70D4B1A6F42F004021A671A6F92
:101C000042F001021A67C5E7FFF77EF80646074B68
:101C10001B6F13F0020F11D0FFF776F8801B41F213
:101C200088339842F3D9032069E000BF00380240AE
:101C300000004742800E474200700040E5B9A369AA
:101C4000002B5BD0304A926802F00C02082A58D070
:101C5000022B17D02D4B00221A60FFF755F80446CF
:101C6000294B1B6813F0007F42D0FFF74DF8001B93
:101C70000228F5D9032042E0234A136C23F0805355
:101C80001364DCE7214B00221A60FFF73DF805469C
:101C90001D4B1B6813F0007F06D0FFF735F8401B83
:101CA0000228F5D903202AE0E369226A1343626A15
:101CB00043EA8213A26A5208013A43EA0243E26A03
:101CC00043EA0263104A5360104B01221A60FFF787
:101CD0001BF804460C4B1B6813F0007F06D1FFF77E
:101CE00013F8001B0228F5D9032008E0002006E0C5
:101CF000002004E001207047012000E0002002B035
:101D000070BD0120FBE700BF003802406000474281
:101D1000324B9B6803F00C03042B5CD0082B01D0E2
:101D20002F4870472DE9F04B2C4B5A6802F03F02C8
:101D30005B6813F4800F2BD0284B5B68C3F38813C8
:101D40001E4600275C010025E41A65EB0705A90182
:101D500041EA9461A001001B61EB0501CB0043EA5D
:101D60005073C400A01943EB07014B0243EAD05360
:101D70004402204619460023FEF720FE174B5B68FD
:101D8000C3F3014301335B00B0FBF3F0BDE8F08B1C
:101D9000124B5B68C3F388131E4600275C010025C5
:101DA000E41A65EB0705A90141EA9461A001001B53
:101DB00061EB0501CB0043EA5073C400A01943EB6B
:101DC00007018B0243EA9053840220461946002300
:101DD000FEF7F4FDD2E70348704700BF0038024029
:101DE0000024F40000127A00002800F09D8070B5F5
:101DF00004464F4B1B6803F00F038B4209D2CBB252
:101E00004B4A1370136803F00F038B4201D001207B
:101E100070BD236813F0020F17D013F0040F04D025
:101E2000444A936843F4E0539360236813F0080F27
:101E300004D0404A936843F4604393603D4A9368FA
:101E400023F0F003A068034393600D46236813F06A
:101E5000010F32D06368012B21D09A1E012A25D9A7
:101E6000344A126812F0020F60D032498A6822F0B8
:101E7000030213438B60FEF747FF06462D4B9B681A
:101E800003F00C036268B3EB820F16D0FEF73CFF41
:101E9000801B41F288339842F0D90320B8E7254AE5
:101EA000126812F4003FE0D10120B1E7214A126824
:101EB00012F0007FD9D10120AAE71D4B1B6803F067
:101EC0000F03AB4209D9EAB2194B1A701B6803F031
:101ED0000F03AB4201D001209AE7236813F0040FEF
:101EE00006D0144A936823F4E053E1680B439360EF
:101EF000236813F0080F07D00E4A936823F4604359
:101F0000216943EAC1039360FFF702FF094B9B6815
:101F1000C3F30313084AD35CD840084B1860002071
:101F200004F0D4FA002073E70120704701206FE726
:101F3000003C024000380240246700080C000020EA
:101F4000014B1868704700BF0C00002008B5FFF770
:101F5000F7FF044B9B68C3F38223034AD35CD8404A
:101F600008BD00BF00380240346700080F2303603B
:101F70000B4B9A6802F0030242609A6802F0F0028A
:101F800082609A6802F4E052C2609B68DB0803F446
:101F9000E0530361034B1B6803F00F030B607047B2
:101FA00000380240003C024030B4036A23F00103D1
:101FB0000362056A4268846924F073040B681C4359
:101FC00025F002058B682B43104DA84203D005F580
:101FD0008065A84205D123F00803CD682B4323F088
:101FE00004030A4DA84203D005F58065A84205D137
:101FF00022F440724D6915438A692A434260846124
:102000004A684263036230BC704700BF0000014071
:1020100030B4036A23F480730362036A4268C469BC
:1020200024F073040D682C4323F400738D6843EA95
:102030000523124DA84203D005F58065A84206D1BC
:1020400023F40063CD6843EA052323F480630B4D3A
:10205000A84203D005F58065A84207D122F440527A
:102060004D6942EA05128D6942EA05124260C46177
:102070004A68C263036230BC704700BF0000014081
:1020800030B4036A23F480530362036A4468C2696C
:1020900022F4E6420D6842EA052223F400538D68DB
:1020A00043EA0533094DA84203D005F58065A842EF
:1020B00004D124F480444D6944EA85144460C2612B
:1020C0004A680264036230BC704700BF00000140F0
:1020D00070470268D36843F00103D36002689368D5
:1020E00003F00703062B03D0136843F001031360CA
:1020F00000207047704770477047704710B504461E
:1021000003681A6912F0020F11D0DA6812F0020F98
:102110000DD06FF002021A610123037703689B69F7
:1021200013F0030F70D0FFF7E6FF00232377236837
:102130001A6912F0040F12D0DA6812F0040F0ED0F0
:102140006FF004021A610223237723689B6913F45A
:10215000407F5FD02046FFF7CEFF00232377236820
:102160001A6912F0080F12D0DA6812F0080F0ED0B8
:102170006FF008021A61042323772368DB6913F0E8
:10218000030F4ED02046FFF7B6FF002323772368C6
:102190001A6912F0100F12D0DA6812F0100F0ED078
:1021A0006FF010021A61082323772368DB6913F4A8
:1021B000407F3DD02046FFF79EFF00232377236812
:1021C0001A6912F0010F03D0DA6812F0010F36D14C
:1021D00023681A6912F0800F03D0DA6812F0800FBA
:1021E00034D123681A6912F0400F03D0DA6812F074
:1021F000400F32D123681A6912F0200F03D0DA6839
:1022000012F0200F30D110BDFFF774FF2046FFF70A
:1022100073FF8AE72046FFF76DFF2046FFF76CFF4C
:102220009BE72046FFF766FF2046FFF765FFACE718
:102230002046FFF75FFF2046FFF75EFFBDE76FF028
:1022400001021A61204603F0E3FFC1E76FF080024C
:102250001A61204600F0CBF9C3E76FF040021A6123
:102260002046FFF74AFFC5E76FF020021A612046BB
:1022700000F0BCF9C7E700000368304A904212D072
:10228000B0F1804F0FD0A2F57C4290420BD002F506
:102290008062904207D002F58062904203D002F53E
:1022A0007842904203D123F070034A681343234AD3
:1022B00090422AD0B0F1804F27D0A2F57C429042C4
:1022C00023D002F5806290421FD002F580629042D6
:1022D0001BD002F57842904217D002F5705290421E
:1022E00013D002F5806290420FD002F580629042D6
:1022F0000BD0A2F59832904207D002F5806290424E
:1023000003D002F58062904203D123F44073CA687F
:10231000134323F080034A69134303608B68C3624D
:102320000B688362054B984203D003F580639842A3
:1023300001D10B6903630123436170470000014031
:10234000A8B110B5044690F83D305BB1022384F883
:102350003D30211D2068FFF78FFF012384F83D30B9
:10236000002010BD80F83C30FFF7B2FEEEE7012000
:102370007047A8B110B5044690F83D305BB1022318
:1023800084F83D30211D2068FFF776FF012384F893
:102390003D30002010BD80F83C3004F051F8EEE7ED
:1023A0000120704730B4036A23F010030362036A0C
:1023B0004468826922F4E6420D6842EA052223F06D
:1023C00020038D6843EA0513114DA84203D005F59B
:1023D0008065A84206D123F08003CD6843EA051347
:1023E00023F040030A4DA84203D005F58065A842BA
:1023F00007D124F440644D6944EA85048D6944EAB8
:102400008504446082614A688263036230BC70471D
:102410000000014038B590F83C30012B66D00D46E5
:102420000446012380F83C30022380F83D300C2A1A
:102430001AD8DFE802F007191919201919193419E7
:10244000191947000068FFF7AFFD2268936943F050
:10245000080393612268936923F00403936122685F
:10246000936929690B439361012384F83D3000206F
:1024700084F83C0038BD0068FFF794FF2268936938
:1024800043F4006393612268936923F4806393614A
:1024900022689369296943EA01239361E4E70068AC
:1024A000FFF7B6FD2268D36943F00803D3612268C1
:1024B000D36923F00403D3612268D36929690B43EC
:1024C000D361D1E70068FFF7DBFD2268D36943F4ED
:1024D0000063D3612268D36923F48063D3612268E7
:1024E000D369296943EA0123D361BDE70220C1E72B
:1024F00010B401F01F01012303FA01F4036A23EA77
:1025000004030362036A8A40134303625DF8044BC9
:102510007047000010B5044601220068FFF7E8FF8D
:1025200023680B4A934203D002F58062934203D1A1
:102530005A6C42F400425A642268936803F007031D
:10254000062B03D0136843F001031360002010BD75
:102550000000014090F83C30012B1CD070B40126E3
:1025600080F83C60022380F83D300268556893682B
:1025700025F070050C682C4323F080054B682B4335
:1025800054600268936080F83D60002380F83C301E
:10259000184670BC70470220704790F83C30012B01
:1025A00022D0012380F83C30CB6823F440738A6842
:1025B000134323F480634A68134323F400630A68D7
:1025C000134323F480530A69134323F400534A69E5
:1025D000134323F48043CA691343026853640023FE
:1025E00080F83C30184670470220704770477047AB
:1025F000842801D0033070470020704708B500F0F0
:1026000065FE002008BD2DE9F04387B004460F4663
:102610004569A5B1866996B1D0F80480D0F80090DC
:10262000B0F90800FFF7E4FF2269029601950090D7
:102630003B464946404600F0DDFD059013E06568E5
:102640002668D4F81080B4F90800FFF7D1FF05AB75
:10265000019300903B461FFA88F23146284600F06D
:1026600002FE012803D1059807B0BDE8F0830020E1
:10267000FAE708B5034600B90123184600F0B8FF91
:10268000002008BD00F1080343604FF0FF32826074
:10269000C360036100230360704700230361704738
:1026A00043684B609A688A609A68516099600861D3
:1026B000036801330360704730B40D68B5F1FF3F24
:1026C00002D000F1080202E0026904E01A465368F1
:1026D0001C68AC42FAD953684B6099608A605160BB
:1026E000086103680133036030BC704703694268C6
:1026F000816891608268416851605A68824206D060
:10270000002202611A68013A1A60186870478268EC
:102710005A60F5E7436A23B1036B1868C0F10700FC
:1027200070470020704710B5044601F023FAA26BF1
:10273000E36B9A4204D0002401F03EFA204610BD1B
:102740000124F9E710B5044601F014FAA36B23B194
:10275000002401F031FA204610BD0124F9E770B5DC
:1027600004461646856B026C5AB903681BB10020FB
:102770000135A56370BD406801F0C8F800236360AF
:10278000F6E76EB9806803F09FFF226CA3681344DC
:10279000A3606268934219D32368A3600020E7E72F
:1027A000C06803F091FF226C5242E3681344E36077
:1027B00021688B4202D263681A44E260022E01D083
:1027C0000020D5E725B1013D0020D1E70020CFE76B
:1027D0000020CDE7026C72B110B5C3681344C3602A
:1027E0004468A34201D30368C3600C46C168204615
:1027F00003F06AFF10BD704738B5054601F0BAF91D
:1028000095F8454064B203E001F006F8013C64B27B
:10281000002C08DD6B6A33B105F1240000F070FF75
:102820000028F3D0F0E7FF2385F8453001F0C4F924
:1028300001F0A0F995F8444064B203E000F0ECFF29
:10284000013C64B2002C08DD2B6933B105F11000A6
:1028500000F056FF0028F3D0F0E7FF2385F844305E
:1028600001F0AAF938BD000038B540B94FF0500367
:1028700083F31188BFF36F8FBFF34F8FFEE70446DA
:102880000D4601F077F92168E26B236C03FB02101F
:1028900060600020A063A160013A02FB0313E360C3
:1028A000FF2384F8443084F84530A5B923691BB967
:1028B00001F082F9012038BD04F1100000F020FF82
:1028C0000028F5D0084B4FF080521A60BFF34F8FAD
:1028D000BFF36F8FECE704F11000FFF7D3FE04F1B4
:1028E0002400FFF7CFFEE3E704ED00E010B5029B04
:1028F0000C4639B11A60D8631C6401211846FFF7F1
:10290000B3FF10BD1B60F6E740B94FF0500383F3EF
:102910001188BFF36F8FBFF34F8FFEE7F0B583B021
:10292000064611B101FB00F000E0002017460C46FE
:10293000483001F095FA054650B1002380F8463042
:1029400000903B4600F1480221463046FFF7CEFF9B
:10295000284603B0F0BD0000F0B585B0019260B12B
:10296000044699B9026C8AB14FF0500383F3118881
:10297000BFF36F8FBFF34F8FFEE74FF0500383F32A
:102980001188BFF36F8FBFF34F8FFEE7022B0BD180
:10299000E26B012A08D04FF0500383F31188BFF394
:1029A0006F8FBFF34F8FFEE71E460F4600F03CFFD0
:1029B00050B9019B53B14FF0500383F31188BFF31B
:1029C0006F8FBFF34F8FFEE700253AE0002538E018
:1029D000324639462046FFF7C2FE636A4BB9A8B1BA
:1029E0003B4B4FF080521A60BFF34F8FBFF36F8F96
:1029F0000CE004F1240000F083FE38B1344B4FF0BA
:102A000080521A60BFF34F8FBFF36F8F01F0D4F87D
:102A1000012005B0F0BD01F0CFF80020F9E702A8D1
:102A200000F0B0FE012519E0002384F8443021E0D5
:102A3000002384F8453023E02046FFF7DDFE00F058
:102A40000DFD01F097F8A26BE36B9A42C0D3022E02
:102A5000BED0019B002BDED0002DE0D001F0ACF801
:102A600000F066FC01F086F894F844305BB2B3F1F4
:102A7000FF3FD9D094F845305BB2B3F1FF3FD7D0D8
:102A800001F09AF801A902A800F086FEC8B9204614
:102A9000FFF749FE0028CFD0019904F1100000F0A3
:102AA00015FE2046FFF7A8FE00F0D8FC0028C8D18C
:102AB000074B4FF080521A60BFF34F8FBFF36F8FF9
:102AC000BFE72046FFF798FE00F0C8FC0020A0E713
:102AD00004ED00E0F0B585B0019260B1044699B90B
:102AE000036C8BB14FF0500383F31188BFF36F8FEA
:102AF000BFF34F8FFEE74FF0500383F31188BFF30E
:102B00006F8FBFF34F8FFEE70F4600F08DFE50B979
:102B1000019B53B14FF0500383F31188BFF36F8FC4
:102B2000BFF34F8FFEE700263EE000263CE039462B
:102B30002046FFF74FFE013DA563236923B901F04D
:102B40003BF8012005B0F0BD04F1100000F0D8FD05
:102B50000028F4D0344B4FF080521A60BFF34F8FEF
:102B6000BFF36F8FEBE701F027F80020EAE702A838
:102B700000F008FE012621E0002384F8443029E01B
:102B8000002384F845302BE02046FFF735FE00F0A7
:102B900065FC09E02046FFF72FFE00F05FFC2046B1
:102BA000FFF7D0FD00283DD100F0E4FFA56B002D1C
:102BB000BDD1019B002BD6D0002ED8D000F0FCFF59
:102BC00000F0B6FB00F0D6FF94F844305BB2B3F1EE
:102BD000FF3FD1D094F845305BB2B3F1FF3FCFD087
:102BE00000F0EAFF01A902A800F0D6FD0028D1D12B
:102BF0002046FFF7A7FD0028C6D0019904F1240064
:102C000000F064FD2046FFF7F7FD00F027FC0028E8
:102C1000CAD1054B4FF080521A60BFF34F8FBFF3FC
:102C20006F8FC1E700208DE704ED00E070B584B040
:102C3000019140B94FF0500383F31188BFF36F8FB8
:102C4000BFF34F8FFEE70446036C43B14FF05003D0
:102C500083F31188BFF36F8FBFF34F8FFEE700F050
:102C6000E3FD50B9019B5BB14FF0500383F3118832
:102C7000BFF36F8FBFF34F8FFEE700252E4651E065
:102C800000252E464EE0013BA363236813B900F0F4
:102C9000F7FE6060236963B104F1100000F030FDBD
:102CA00038B1484B4FF080521A60BFF34F8FBFF3DB
:102CB0006F8F00F081FF0125284604B070BD45B13B
:102CC0004FF0500383F31188BFF36F8FBFF34F8F23
:102CD000FEE700F071FFEFE702A800F053FD0126C8
:102CE0002AE0002384F8443032E0002384F84530A1
:102CF00034E000F03FFF606800F0A6FD054600F0FC
:102D00005BFF3BE02046FFF777FD00F0A7FB09E003
:102D10002046FFF771FD00F0A1FB2046FFF712FDF2
:102D2000002840D100F026FFA36B002BABD1019B04
:102D3000002BC4D0002ECFD000F03EFF00F0F8FAF8
:102D400000F018FF94F844305BB2B3F1FF3FC8D0F5
:102D500094F845305BB2B3F1FF3FC6D000F02CFFD2
:102D600001A902A800F018FD0028D1D12046FFF7E4
:102D7000E9FC0028C6D02368002BBAD0019904F1E1
:102D8000240000F0A3FC2046FFF736FD00F066FBB0
:102D90000028C7D10B4B4FF080521A60BFF34F8F02
:102DA000BFF36F8FBEE7002D86D000F0E3FE204614
:102DB000FFF7B0FC0146606800F000FE00F0FCFE8A
:102DC000002579E704ED00E070B584B0019260B1B0
:102DD000044699B9036C8BB14FF0500383F311880B
:102DE000BFF36F8FBFF34F8FFEE74FF0500383F3B6
:102DF0001188BFF36F8FBFF34F8FFEE70E4600F0D1
:102E000013FD50B9019B53B14FF0500383F3118868
:102E1000BFF36F8FBFF34F8FFEE700253EE0002525
:102E20003CE0E56831462046FFF7D4FCE560636A84
:102E300023B900F0C1FE012004B070BD04F12400EC
:102E400000F05EFC0028F4D0344B4FF080521A6042
:102E5000BFF34F8FBFF36F8FEBE700F0ADFE0020A5
:102E6000EAE702A800F08EFC012521E0002384F8A7
:102E7000443029E0002384F845302BE02046FFF75A
:102E8000BBFC00F0EBFA09E02046FFF7B5FC00F0D0
:102E9000E5FA2046FFF756FC00283DD100F06AFE17
:102EA000A36B002BBDD1019B002BD6D0002DD8D019
:102EB00000F082FE00F03CFA00F05CFE94F8443032
:102EC0005BB2B3F1FF3FD1D094F845305BB2B3F1C0
:102ED000FF3FCFD000F070FE01A902A800F05CFC1B
:102EE0000028D1D12046FFF72DFC0028C6D001993B
:102EF00004F1240000F0EAFB2046FFF77DFC00F01F
:102F0000ADFA0028CAD1054B4FF080521A60BFF3CA
:102F10004F8FBFF36F8FC1E700208DE704ED00E016
:102F2000074B9B6A1B6833B1054B9A6AD268D2681B
:102F30005268DA627047024B4FF0FF32DA62704734
:102F40002C0000202DE9F04780469946089D099FF6
:102F50000A9C266B02F18042013A06EB820626F0BB
:102F6000070600230F2B07D8C85CE21882F834004C
:102F7000CA5C0AB10133F5E7002384F84330062D1B
:102F800000D90625E56265644FF0000AC4F848A040
:102F9000201DFFF782FB04F11800FFF77EFB246180
:102FA000C5F10705A5616462C4F84CA084F850A07F
:102FB0004A464146304600F0B1FD206007B13C6012
:102FC000BDE8F08770B5002407E004EB84029300AD
:102FD00010481844FFF756FB0134062CF5D90E4C67
:102FE00004F1BC063046FFF74DFB04F1D00528463E
:102FF000FFF748FB04F11400FFF744FB04F1E40081
:10300000FFF740FB2046FFF73DFBA662C4F8F850EF
:1030100070BD00BF5C0000202C00002038B50546C4
:1030200000F0A8FD264BD3F8FC200132C3F8FC20A9
:10303000D3F8003173B1224BD3F804318BB9204B54
:10304000D3F80031DA6AEB6A9A420AD81C4BC3F80B
:10305000005106E01A4BC3F80051D3F8FC30012BA5
:103060002AD0174CD4F808310133C4F80831EB6A80
:1030700001229A40D4F80C110A43C4F80C2104F13F
:10308000300003EB83039A00291D1044FFF708FB6F
:1030900000F092FDD4F804316BB1D4F80031DA6A53
:1030A000EB6A9A4207D2074B4FF080521A60BFF387
:1030B0004F8FBFF36F8F38BDFFF784FFD1E700BF9D
:1030C0002C00002004ED00E010B5044690F85130CB
:1030D00033B9006B00F03EFF204600F03BFF10BD0F
:1030E000012B0AD0022BFAD04FF0500383F3118842
:1030F000BFF36F8FBFF34F8FFEE700F02BFFEEE7BC
:1031000038B517E000F036FD0D4CD4F8F030DD682E
:10311000281DFFF7EBFAD4F8FC30013BC4F8FC3073
:10312000D4F81031013BC4F8103100F045FD2846B9
:10313000FFF7CAFF024BD3F81031002BE2D138BDA4
:103140002C00002008B5FFF7DBFF064B1B6B012BA3
:10315000F9D9054B4FF080521A60BFF34F8FBFF380
:103160006F8FF0E72C00002004ED00E070B50446FE
:103170000E461F4BD3F81451D3F800010430FFF76B
:10318000B5FA60B91A4BD3F80021D16A012202FACC
:1031900001F1D3F80C2122EA0102C3F80C21B4F1A9
:1031A000FF3F12D02C44124BD3F800315C60A54293
:1031B00014D80F4DA86AD5F800110431FFF77CFA36
:1031C000EB6AA34212D9EC6210E0002EEAD0084864
:1031D000D0F800110431FFF763FA07E0044BD3F88D
:1031E000F800D3F800110431FFF766FA70BD00BF94
:1031F0002C00002070B586B00B9D0C9C45B94FF09B
:10320000500383F31188BFF36F8FBFF34F8FFEE737
:1032100044B94FF0500383F31188BFF36F8FBFF3AE
:103220004F8FFEE754260496049E542E08D04FF08C
:10323000500383F31188BFF36F8FBFF34F8FFEE707
:103240002563022584F8515000250395029405ADAD
:1032500001950A9D0095FFF775FE2046FFF7DEFEFB
:10326000059806B070BD2DE9F04385B00746884645
:1032700015469946900000F0F3FD08B30646542029
:1032800000F0EEFD0446B8B10663E4B1002384F813
:103290005130039302940D9B01930C9B00934B467A
:1032A0002A4641463846FFF74DFE2046FFF7B6FE58
:1032B000012005B0BDE8F083304600F04BFEE4E7A6
:1032C0004FF0FF30F5E74FF0FF30F2E710B588B070
:1032D00000240594069407AA06A905A802F0A2FDF9
:1032E000059B0293069B019300942346079A0D4980
:1032F0000D48FFF77FFF08B908B010BD4FF050032D
:1033000083F31188BFF36F8FBFF34F8F074B4FF0DD
:10331000FF32DA620122C3F80421C3F8144100F03D
:10332000CBFCE9E73C670008453100082C00002091
:10333000034AD2F818310133C2F81831704700BF80
:103340002C000020014BD3F8140170472C00002002
:103350002DE9F041404BD3F81831002B6CD13E4B96
:10336000D3F814510135C3F81451CDB99B6A1B68C9
:1033700043B14FF0500383F31188BFF36F8FBFF356
:103380004F8FFEE7344B9A6AD3F8F8109962C3F86E
:10339000F820D3F81C210132C3F81C21FFF7C0FD2F
:1033A0002D4BDB6AAB423DD900242B4AD2F80031C9
:1033B000DB6A03EB830399000A44136B012B42D9A8
:1033C000012440E00124244B9B6A1B6863B3224B19
:1033D0009B6ADB68DE6873689D422AD306F10408A5
:1033E0004046FFF783F9B36A1BB106F11800FFF7F7
:1033F0007DF9F36A01229A40174FD7F80C110A435E
:10340000C7F80C2107F1300003EB83039A00414613
:103410001044FFF745F9F26AD7F80031DB6A9A42A7
:10342000D0D2D0E70024CEE70B4B4FF0FF32DA6268
:10343000BBE7094AD362B8E7074AD2F82031013323
:10344000C2F820310024044BD3F8243103B1012405
:103450002046BDE8F08100BF2C000020394BD3F896
:10346000183143B94FF0500383F31188BFF36F8FC6
:10347000BFF34F8FFEE770B500F07CFB314BD3F804
:103480001821013AC3F81821D3F81831002B54D170
:103490002C4BD3F8FC3023B9002400F08DFB2046E0
:1034A00070BD0024274B5B692BB3264D2B6ADC686B
:1034B00004F11800FFF71AF9261D3046FFF716F938
:1034C000E36A01229A40D5F80C110A43C5F80C2191
:1034D00005F1300003EB83039A0031461044FFF7F7
:1034E000DFF8E26AD5F80031DB6A9A42DAD30122CA
:1034F000C5F82421D6E70CB1FFF712FD114BD3F824
:10350000204164B1FFF724FF18B10E4B0122C3F82C
:103510002421013CF6D10B4B0022C3F82021094B9A
:10352000D3F824315BB1084B4FF080521A60BFF3DF
:103530004F8FBFF36F8F0124AFE70024ADE7002466
:10354000ABE700BF2C00002004ED00E038B550B11F
:10355000054689B94FF0500383F31188BFF36F8F8D
:10356000BFF34F8FFEE74FF0500383F31188BFF393
:103570006F8FBFF34F8FFEE71B4BD3F8183143B16A
:103580004FF0500383F31188BFF36F8FBFF34F8F5A
:10359000FEE70C46FFF7CCFE134BD3F814012A6864
:1035A0001444824218D9A2420CD82C60FFF756FF6F
:1035B00038B90E4B4FF080521A60BFF34F8FBFF3F4
:1035C0006F8F38BDA04201D32C60EFE72C60002143
:1035D000201AFFF7CBFDE9E7A24201D8A04201D2B1
:1035E0002C60F4E72C60E1E72C00002004ED00E003
:1035F00010B5B0B104460F4BD3F8183143B14FF0BA
:10360000500383F31188BFF36F8FBFF34F8FFEE733
:10361000FFF78EFE00212046FFF7A8FDFFF71EFFF3
:1036200038B9054B4FF080521A60BFF34F8FBFF38C
:103630006F8F10BD2C00002004ED00E0224BD3F86A
:10364000183123B1204B0122C3F8242170471E4AB0
:103650000023C2F82431D2F80C31B3FA83F3DBB281
:10366000C3F11F0303EB830081000A44126B42B9CC
:103670004FF0500383F31188BFF36F8FBFF34F8F69
:10368000FEE710B4104A9900CC18A0001044446B17
:10369000646844633032194488000830024494421C
:1036A0000BD0094903EB83039A000A44536BDB6890
:1036B000C1F800315DF8044B70476168024814227C
:1036C00002FB03025163ECE72C00002040B94FF0ED
:1036D000500383F31188BFF36F8FBFF34F8FFEE763
:1036E00010B50C46054BD3F800111831FEF7E4FF76
:1036F00001212046FFF73AFD10BD00BF2C0000203D
:1037000038B5C368DC6844B94FF0500383F31188BF
:10371000BFF36F8FBFF34F8FFEE704F11805284604
:10372000FEF7E4FF154BD3F8183103BB251D2846DF
:10373000FEF7DCFFE36A01219940104AD2F80C0140
:103740000143C2F80C11303203EB83039800294681
:103750001044FEF7A5FFE26A084BD3F80031DB6A9C
:103760009A4209D90120054BC3F8240138BD2946E6
:103770000348FEF795FFEEE70020F7E72C00002056
:1037800040000020034BD3F81C210260D3F8143111
:10379000436070472C000020F8B550B1054689B948
:1037A0004FF0500383F31188BFF36F8FBFF34F8F38
:1037B000FEE74FF0500383F31188BFF36F8FBFF321
:1037C0004F8FFEE70C4600F0D5F9124BD3F81411D9
:1037D00068680A1A2368B3F1FF3F17D02F680D4EAF
:1037E000D6F81C61B74201D0884211D9934203D860
:1037F00000232360012405E09B1A23602846FFF77D
:10380000C1FF002400F0D8F92046F8BD0024F9E7F4
:103810000124F7E72C000020024B0122C3F82421E9
:10382000704700BF2C000020064BD3F804313BB199
:10383000044BD3F818310BB10020704702207047B9
:10384000012070472C000020002859D038B50446CC
:10385000C26A2C49D1F80011C96A8A4245D28169ED
:10386000002906DB2749D1F80011C96AC1F1070117
:103870008161606902EB82029100234A0A4490420E
:1038800006D0204AD2F80021D26AE262012038BD77
:10389000251D2846FEF72AFF80B9E26A02EB820363
:1038A0009900184B0B441B6B43B9012393401549F6
:1038B000D1F80C2122EA0302C1F80C211148D0F8FA
:1038C0000031DB6AE362012404FA03F2D0F80C1140
:1038D0000A43C0F80C21303003EB83039A002946D9
:1038E0001044FEF7DDFE2046D1E7426C054BD3F8CD
:1038F0000031DB6A9A4201D20120C8E70020C6E706
:10390000002070472C0000205C00002000284DD0D3
:1039100038B50446284AD2F80021824208D04FF038
:10392000500383F31188BFF36F8FBFF34F8FFEE710
:10393000826C42B94FF0500383F31188BFF36F8F4D
:10394000BFF34F8FFEE7013A8264C06A616C884220
:103950002ED07ABB251D2846FEF7C8FE78B9E26A4C
:103960001549142303FB02131B6B43B9012303FA0C
:1039700002F2D1F80C3123EA0203C1F80C31626C77
:10398000E262C2F10703A361012404FA02F10A4BC7
:10399000D3F80C010143C3F80C113033294614202D
:1039A00000FB0230FEF77CFE204638BD0020704749
:1039B0000020FAE70020F8E72C000020002859D06A
:1039C00038B50346806C40B94FF0500383F311883B
:1039D000BFF36F8FBFF34F8FFEE75A6C8A4200D25E
:1039E0000A46D96A914201D0012800D038BD224848
:1039F000D0F80001984208D14FF0500383F31188AA
:103A0000BFF36F8FBFF34F8FFEE7DA62986900282C
:103A100002DBC2F107029A615A691848142404FBB8
:103A200001018A42E2D11C461D1D2846FEF75EFEBA
:103A300078B9E26A1049142303FB02131B6B43B9E4
:103A4000012303FA02F2D1F80C3123EA0203C1F890
:103A50000C31E06A01228240074BD3F80C110A4373
:103A6000C3F80C2130332946142202FB0030FEF744
:103A700017FEBBE7704700BF2C0000205C00002051
:103A8000064BD3F800312BB1044BD3F80021936CD3
:103A900001339364014BD3F8000170472C000020E0
:103AA00082B0002301930D4B1B68B3F1FF3F08D098
:103AB0004FF0500383F31188BFF36F8FBFF34F8F25
:103AC000FEE74FF0500383F31188BFF36F8FBFF30E
:103AD0004F8F019B002BFCD002B0704708000020E4
:103AE00008480068006880F308884FF0000080F301
:103AF000148862B661B6BFF34F8FBFF36F8F00DFDC
:103B000000BF000008ED00E0DFF80C00016841F4A0
:103B1000700101607047000088ED00E04FF0807395
:103B200040F8043C21F0010140F8081C054B40F826
:103B30000C3C40F8202C6FF0020340F8243C443841
:103B4000704700BFA13A000800000000000000001C
:103B5000074B19680868B0E8F04F80F30988BFF395
:103B60006F8F4FF0000080F311887047AFF3008033
:103B70002C0100204FF0500383F31188BFF36F8FA7
:103B8000BFF34F8F0A4A136801331360012B00D033
:103B90007047084B1B6813F0FF0FF9D04FF050032C
:103BA00083F31188BFF36F8FBFF34F8FFEE700BF22
:103BB0000800002004ED00E0094B1B6843B94FF0FA
:103BC000500383F31188BFF36F8FBFF34F8FFEE76E
:103BD000013B034A13600BB983F31188704700BFA0
:103BE00008000020000000000000000000000000AD
:103BF000EFF30980BFF36F8F154B1A681EF0100F9B
:103C000008BF20ED108A20E9F04F10602DE909006F
:103C10004FF0500080F31188BFF34F8FBFF36F8FC9
:103C2000FFF70CFD4FF0000080F3118809BC196804
:103C30000868B0E8F04F1EF0100F08BFB0EC108A13
:103C400080F30988BFF36F8F704700BFAFF3008028
:103C50002C01002008B54FF0500383F31188BFF307
:103C60006F8FBFF34F8FFFF773FB18B1034B4FF00C
:103C700080521A60002383F3118808BD04ED00E030
:103C8000084A0023136008490B60084B1B68084969
:103C9000A1FB03139B09013B06490B60072313603B
:103CA000704700BF10E000E018E000E00C000020CA
:103CB000D34D621014E000E0394B1A68394B9A4238
:103CC0000DD0374B1A68384B9A4211D14FF0500340
:103CD00083F31188BFF36F8FBFF34F8FFEE74FF071
:103CE000500383F31188BFF36F8FBFF34F8FFEE74D
:103CF00010B582B02D4B1A78D2B20192FF221A7001
:103D00001B78DBB28DF803309DF8033003F05003CD
:103D1000274A13700723536009E0254A5368013B83
:103D200053609DF803305B00DBB28DF803309DF8E3
:103D3000033013F0800FF0D11D4B5B68032B08D0CC
:103D40004FF0500383F31188BFF36F8FBFF34F8F92
:103D5000FEE71B0203F4E063154A5360019BDBB2EC
:103D6000124A1370134B1A6842F470021A601A68F0
:103D700042F070421A60FFF783FF00240E4B1C6074
:103D8000FFF7C2FE0D4A136843F040431360FFF78C
:103D9000A7FEFFF753FCFFF783FE204602B010BDDD
:103DA00000ED00E071C20F4170C20F4100E400E07D
:103DB0005401002020ED00E00800002034EF00E076
:103DC000104A12F0070F1AD0D11D21F00701C1F5DA
:103DD000705313440A460C490A600020486013449B
:103DE000083B23F007038B6058601860981A5060F6
:103DF0001360C86008614FF000434B6170474FF497
:103E00007053E8E7740100205C01002010B4134BEC
:103E10001A6882421BD359685C18844203D14068F7
:103E200001445960184641684418A24213D10B4C12
:103E3000A468A2420DD05268114441601A68126809
:103E40000260984200D018605DF8044B704713463A
:103E5000DEE70460F5E70260F3E700BF5C010020E5
:103E600070B50446FFF764FA394B9B68BBB1384B19
:103E70005B691C4262D1ACB1083414F0070F11D059
:103E800024F00704083404F007035BB14FF050033B
:103E900083F31188BFF36F8FBFF34F8FFEE7FFF7F8
:103EA0008FFFE4E7002C4BD0294B1B69A34249D379
:103EB000274B1D6801E02B4615466A68A24202D2D4
:103EC0002A68002AF7D1224A9268AA423CD01E688A
:103ED00008362A681A606B681B1B102B10D928192A
:103EE00010F0070F08D04FF0500383F31188BFF391
:103EF0006F8FBFF34F8FFEE743606C60FFF786FF65
:103F00006968134A13695B1A1361D268934201D23C
:103F10000F4AD3600E4B5B690B436B6000232B6031
:103F2000FFF79CFA16F0070F10D04FF0500383F301
:103F30001188BFF36F8FBFF34F8FFEE70026EFE7C7
:103F40000026EDE70026EBE70026E9E7304670BDE6
:103F50005C01002080B338B50446A0F1080550F894
:103F6000042C164949690A4208D14FF0500383F3E3
:103F70001188BFF36F8FBFF34F8FFEE750F8080C27
:103F800040B14FF0500383F31188BFF36F8FBFF33D
:103F90004F8FFEE722EA010244F8042CFFF7C8F92C
:103FA00054F8041C054A13690B4413612846FFF7B3
:103FB0002DFFFFF753FA38BD704700BF5C010020AA
:103FC00070B582B00023019309E0F06C0521FEF783
:103FD0002DFE012868D0322101A8FFF7B7FAFFF7BC
:103FE000B1F90190404C2068FCF75AFF0521206888
:103FF000FDF710F82068FDF768F806462068FCF722
:10400000E9FF2068FCF74CFF05212068FDF702F866
:104010002068FDF75AF805462068FCF7DBFF4FF4EF
:10402000FA6000FB06F0314CA4FB0023C01A03EB3E
:104030005000C00AFCF70EFA00222D4BFCF7CCF81A
:10404000FCF794FC2B4EC6F8B00043F2D40000FB02
:1040500005F0A4FB0034001B04EB5000C00AFCF781
:10406000F9F91FA3D3E90023FCF7B6F8FCF77EFCAF
:104070000446C6F8B4000028A7DB1E4BD86C052107
:10408000FEF7D4FD0128A6D11A4B5B6AA3421FDAC2
:10409000184B012283F84520164BD86C00231A4692
:1040A0001946FEF759FC96E76442336A9C420ADDE2
:1040B000012286F844200F4BD86C00231A4619467B
:1040C000FEF74AFC87E70B4B002283F84420F2E717
:1040D000084B002283F84520DEE700BFAFF30080E5
:1040E00000000000006AB840D03F0020010110002D
:1040F00000408F40F03F002000B583B000230193C3
:10410000FFF720F902AC44F8040D40210448FDF704
:1041100029FC40F2EE212046FFF718FAF0E700BF35
:10412000000C024070B582B000221C210820FEF76E
:10413000EBFB434E3060002224211420FEF7E4FB09
:104140007060002224211E20FEF7DEFBB0600022FA
:1041500024212820FEF7D8FBF060002401940125DB
:1041600000952346802237493748FFF77CF80194B1
:1041700000952346802235493548FFF774F80194AD
:1041800000952346802233493348FFF76CF80194A9
:1041900000952346802231493148FFF764F80194A5
:1041A0000095234680222F492F48FFF75CF80194A1
:1041B00003230093234680222C492D48FFF753F810
:1041C000019402230093234680222A492A48FFF7BC
:1041D0004AF8D6F8D4300193009523468022274927
:1041E0002748FFF740F8D6F8D830019300952346CA
:1041F000802224492448FFF736F80194009523468D
:10420000802222492248FFF72EF801940095234688
:10421000402220492048FFF726F8019400952346C4
:1042200080221E491E48FFF71EF801940095234680
:1042300080221C491C48FFF716F802B070BD00BF71
:10424000F03F002044670008894E000854670008CA
:10425000554F000864670008955000087067000813
:104260004954000880670008295800089067000832
:10427000594C00089C670008F9400008A86700082E
:10428000FD5C0008C4670008594A0008D0670008B0
:10429000C13F0008E4670008C9650008EC67000832
:1042A0005152000800680008D5510008F8B50646CC
:1042B00000285ED08C4BC8255D6240F6B8321A6289
:1042C0004FF416721A834FF638775F834AF204610F
:1042D000998346F2A810D883002483F82B4083F8F2
:1042E0002A4083F8294083F82840012283F82C20B3
:1042F00083F82D404FF4FA729A865A861A86DA8528
:104300003222DA8683F83E4083F83F4083F8424009
:1043100083F8434083F8404083F8414083F83D40B0
:1043200083F8454083F8444083F8A840C3F8B04080
:10433000C3F8B440C3F8AC4083F8A940A3F8BA70FE
:10434000A3F8BE10A3F8C050A3F8C400A3F8C81087
:1043500083F8B84083F8B94083F8C24083F8C3407B
:1043600083F8BC4083F8BD4083F8C64083F8C7405B
:104370007BE0032200210120FEF7C6FA5A4CC4F864
:10438000DC00032200210120FEF7BEFAA063032215
:1043900000210120FEF7B8FAE06403220021012089
:1043A000FEF7B2FAC4F8CC00D4F8DC0000231A46B9
:1043B0001946FEF7D1FAE06C00231A461946FEF7BB
:1043C000CBFAA06B00231A461946FEF7C5FAD4F8BB
:1043D000CC0000231A461946FEF7BEFA6AE703220C
:1043E00000210120FEF790FA3F4F3865032200219B
:1043F0000120FEF789FAC7F89C00386D00231A46A1
:104400001946FEF7A9FAD7F89C0000231A46194668
:10441000FEF7A2FA3AE03449680028444300134406
:1044200003F1280701EB47070020B88003F13407A8
:1044300001EB4707B880403301EB4303988001321A
:10444000D2B2052AE7D900230BE003EB450202F1C3
:104450004C01254A02EB41024FF400411181013326
:10446000DBB2012BF1D90134E4B2012C10D825467E
:1044700004EB44021C4B1344012283F84620002223
:1044800083F8472083F84820002EA8D00022D8E7E0
:10449000002405E0154B002243F834200134E4B237
:1044A000012C11D8002EF5D1032200210120FEF7A6
:1044B0002BFA0E4B03EBC4035860586800231A46CE
:1044C0001946FEF749FAE5E766B9094B094ADA6089
:1044D00000229A60084A5A60084A1A61084A1A601B
:1044E000084ADA61F8BD00BFF03F0020D440002048
:1044F000D03F0020B441002030420020E84000209E
:104500006C410020F041002010B588B000240394D5
:104510000494012305934FF4C06301938DF81800B0
:10452000044B58682346642201A9FEF715FA204679
:1045300008B010BDF03F002038B500252C4608E03B
:104540000F4BD86C00231A461946FEF705FA0134C2
:10455000E4B2012C11D80A4BD86C0521FEF766FB9A
:104560000128F4D104EB4402054B134493F8463080
:10457000DBB2012BE4D10125E2E7284638BD00BFBC
:10458000F03F0020124A002382F83C3082F83E308F
:1045900082F83F3082F8423082F8433082F840306F
:1045A00082F8413082F8453082F844300CE003EB69
:1045B0004301074A0A44002182F8461082F8471056
:1045C00082F848100133DBB2012BF0D9002070478C
:1045D000F03F002000B589B0002303930493032328
:1045E000059340F2096301932E4A92F8453003F097
:1045F000010392F84410490001F002010B4392F8C4
:104600004210090101F010010B4392F8401089009B
:1046100001F004010B4392F84110C90001F00801B8
:104620000B4392F84320520102F0200213438DF80D
:104630001830012228E01B4991F8463003F00103AD
:1046400091F84700400000F00200034391F8480051
:10465000800000F00400034391F84900000100F0DD
:104660001000034391F84A00400100F0200003438A
:1046700091F84B10890101F0400108A810440B4348
:1046800000F8083C0132D2B2022AD4D9054B58684E
:104690000023642201A9FEF75FF9002009B05DF84C
:1046A00004FB00BFF03F002070B582B000218DF800
:1046B00004108DF80510ADF806108DF800108DF877
:1046C00001104FF6FF73ADF802300E4650E0013393
:1046D000DBB2052B4AD80C461D4601EB41004200D7
:1046E0001A442832664800EB4202928892B2002AAD
:1046F000EDD04800084442001A442832604800EBDC
:10470000420290880644928892B2BDF80600824226
:104710000ED901EB410042001A442832584800EB00
:1047200042029288ADF806208DF804108DF805300D
:1047300004EB440042002A442832514800EB420274
:10474000928892B2BDF802008242C0D204EB4404C7
:104750006200154428354A4A02EB4505AA88ADF89F
:1047600002208DF800108DF80130B0E70131C9B298
:10477000012901D80023ACE7414BC3F8AC60BDF878
:104780000220DB8B9BB29A422AD23D4BD86C05218A
:10479000FEF74CFA012818D0BDF80620384B9B8B49
:1047A0009BB29A4238D9364BD86C0521FEF73EFAB7
:1047B000012826D0324BD3F8CC000521FEF736FA7B
:1047C00001283AD0012002B070BD2D4B012283F8A0
:1047D0004120D86C00231A461946FEF7BDF8DBE7E6
:1047E000274BD86C0521FEF721FA0128D4D1244BA0
:1047F000002183F84110D86C0B460A46FEF7ACF84E
:10480000CAE71F4B012283F84020D86C00231A46C8
:104810001946FEF7A1F8CDE7194BD86C0521FEF734
:1048200005FA0128C6D1164B002183F84010D86C38
:104830000B460A46FEF790F8BCE79DF80420104BA3
:1048400083F8C2209DF8052083F8C320BDF8062018
:10485000A3F8C4209DF8002083F8C6209DF801200D
:1048600083F8C720BDF80220A3F8C820D3F8CC00F5
:1048700000231A461946FEF76FF80020A3E700BF91
:10488000F03F002070B582B000228DF804208DF832
:1048900005204FF40043ADF806308DF800208DF868
:1048A000012047F6FF73ADF80230154641E00133B1
:1048B000DBB2012B3BD81646184603EB420101F14F
:1048C0004C04644901EB44010C890C8925442DB248
:1048D000098909B2BDF90640A1420DDD03EB420191
:1048E00001F14C045B4901EB44010989ADF8061064
:1048F0008DF804208DF8053000EB460101F14C04E1
:10490000544901EB4401098909B2BDF90240A142B1
:10491000CDDA00EB46004C304E4901EB40000189F6
:10492000ADF802108DF800208DF80130BFE701329C
:10493000D2B2012A01D80023BBE72B46002D2DDB84
:1049400043F38F03434AA2F8C030BDF90210538BE2
:104950001BB2994202DA11F5004F21D13D4BD86CC0
:104960000521FEF763F901282BD0BDF90620394B4C
:104970001B8B1BB29A4239DD364BD86C0521FEF7F2
:1049800055F9012827D0334BD3F8CC000521FEF789
:104990004DF901283BD0012002B070BDEB1CCFE7E0
:1049A000D06C0521FEF742F90128DED1294B012206
:1049B00083F84320D86C00231A461946FDF7CCFF34
:1049C000D3E7244B002183F84310D86C0B460A46EA
:1049D000FDF7C2FFC9E71F4B012283F84220D86CC4
:1049E00000231A461946FDF7B7FFCCE7194BD86CE0
:1049F0000521FEF71BF90128C5D1164B002183F8CC
:104A00004210D86C0B460A46FDF7A6FFBBE79DF89F
:104A10000420104B83F8B8209DF8052083F8B920B6
:104A2000BDF90620A3F8BA209DF8002083F8BC2029
:104A30009DF8012083F8BD20BDF90220A3F8BE2017
:104A4000D3F8CC0000231A461946FDF785FF002055
:104A5000A2E700BFF03F002010B582B00023019311
:104A60003FE00124002310E00124FBE70124F9E7E3
:104A70000124F7E70124F5E70124F3E70124F1E736
:104A80000124EFE701240133DBB2012B1BD803EB38
:104A900043004E4A024492F84620D2B2012AF1D095
:104AA0004A4A024492F84720D2B2012A09D001466C
:104AB000464A114491F84820D2B2012AE3D1012498
:104AC000E1E70124DFE7002C50D1404BD86C0521F1
:104AD000FEF7ACF801286FD04FF4FA7101A8FEF789
:104AE00035FDFEF72FFC0190FFF7DEFDFFF7CAFE54
:104AF000364B93F8E030DBB2022B05D0334B93F802
:104B0000E030DBB2032BE7D1304B93F83E30DBB221
:104B1000012BA6D02D4B93F83F30DBB2012BA3D055
:104B20002A4B93F84230DBB2012B9FD0274B93F8EE
:104B30004330DBB2012B9BD0244B93F84030DBB2E7
:104B4000012B97D0214B93F84130DBB2012B93D04E
:104B50001E4B93F84430DBB2012B8FD01B4B93F8E4
:104B60004530DBB2012B8BD000247BE7174BD86C90
:104B70000521FEF75BF8012813D0144BD3F8DC00B5
:104B80000521FEF753F80128A6D1104B032283F824
:104B9000E020D3F8DC0000231A461946FDF7DCFEBE
:104BA0009AE70A4B012283F83D20D86C00231A466D
:104BB0001946FDF7D1FEE0E7044B002183F83D10D4
:104BC000D86C0B460A46FDF7C7FE85E7F03F00208C
:104BD00070B50E4615461C4601281ED000224FF423
:104BE00000511C48FCF7B8FE012E1DD000224FF4E6
:104BF00080411848FCF7B0FE012D1CD000224FF474
:104C000080511448FCF7A8FE012C1BD000224FF461
:104C100000411048FCF7A0FE70BD01224FF4005186
:104C20000C48FCF799FEDFE701224FF48041094868
:104C3000FCF792FEE0E701224FF480510548FCF7B3
:104C40008BFEE1E701224FF400410248FCF784FEAD
:104C5000E2E700BF000C024030B589B000240094A8
:104C6000714B83F8E0402046FFF720FB6BE0012307
:104C7000002211461046FFF7ABFF0120FFF716FB9D
:104C8000002280216948FCF767FE674BD3F8DC00FF
:104C90000521FDF7CBFF012837D1634B012283F8B3
:104CA000E020D3F8DC0000231A461946FDF754FE35
:104CB0002BE00023012219461846FFF789FF06E082
:104CC0000020FFF721FC4FF4FA70FEF791FCFFF78C
:104CD00033FC0128F4D0544BD3F8DC000521FDF758
:104CE000A5FF012811D1504B022283F8E020D3F810
:104CF000DC0000231A461946FDF72EFE05E00123CD
:104D00001A4600210846FFF763FF0023039304932C
:104D1000012305934FF440730193434B93F8E03024
:104D20008DF81830651CEDB2414BA3FB04239B08A2
:104D300003EB8303E31A13F0FF0F6DD014216846D1
:104D4000FEF704FC2C46FEF7FDFA0090364B93F874
:104D5000E030DBB2042BD8D801A252F823F000BF18
:104D60006F4C0008B34C0008FF4C0008754D00085C
:104D7000054E000800231A4601211846FFF728FFB8
:104D8000294B93F83D307BB1274B93F83C3023BB44
:104D9000012280212548FCF7DFFDFFF71BFC4FF4C3
:104DA0007A70FEF725FCB0E7002280211F48FCF74F
:104DB000D3FD1D4BD3F8DC000521FDF737FF01289B
:104DC000A3D1194B022283F8E020D3F8DC000023A2
:104DD0001A461946FDF7C0FD97E7FFF7D3FB124BC4
:104DE000D3F8DC000521FDF721FF01288DD10E4B02
:104DF000002183F8E010D3F8DC000B460A46FDF7EB
:104E0000ABFD82E70123002219461046FFF7E0FEC2
:104E10000120FFF779FB78E7034B58680023052250
:104E200001A9FDF799FD89E7F03F0020000C024041
:104E3000CDCCCCCC2DE9F0418AB080464FF448432C
:104E400000934CF6200301934CF6600702974CF652
:104E500040060396002404940594069407940125C3
:104E600008956946FCF7A2FA00970196029403940C
:104E70000494059506940794089569464046FCF706
:104E800095FA0AB0BDE8F08130B589B000240794E6
:104E9000029403940123049340F2046200928DF87B
:104EA000143022E005EB4502284B1344012283F81D
:104EB0004620264BD86C00231A461946FDF74CFDB8
:104EC000234B03EBC505686800231A461946FDF716
:104ED00043FD1E4B5868002305226946FDF73CFD43
:104EE0004FF47A7107A8FEF731FBFEF72BFA079013
:104EF000013404F0010448BF6442E4B22546144B77
:104F000003EBC40358680521FDF790FE0128E0D1AA
:104F10000E4BD86C0521FDF789FE0128D0D1FEF794
:104F200011FA0B4B53F83430C01A40F6B83398429C
:104F3000B8D8074B53F83430002BB3D004EB4402FD
:104F4000024B1344002283F84620B2E7F03F0020D2
:104F5000D440002000B591B00023089303E0322133
:104F600008A8FEF7F3FAFEF7EDF90890134B58681E
:104F7000052209A9FDF728FF0128F0D10F4B586839
:104F8000052209A9FDF7A6FD0D9B06930B9B049333
:104F90000C9B0593099B029300238DF81C30084B52
:104FA000D868FCF73CFB0028F9D001AB0EAA02A997
:104FB0000348C068FCF7BEFAD1E700BFF03F00200D
:104FC000D03F002030B4437D03EB4303DBB2057DCB
:104FD000817D090209B2C27D1143027E120212B222
:104FE000407E0243581C084C6D002B444C3304EBAC
:104FF0004303198155FA80F34C3304EB43031A81C0
:10500000002030BC704700BFF03F00202DE9F04188
:10501000437D03EB4303DCB290F81480837DC77DAE
:1050200047EA0327037E467E46EA0326837EC57E43
:1050300045EA0325164B186D0521FDF7F7FD0128FC
:1050400002D00120BDE8F081611C114A4FEA4800FE
:1050500000EB080C4FEA4C039C462344283302EB38
:1050600043039F80A31C5CFA81F1283102EB4101CC
:105070008E805CFA83F3283302EB43039D80106D2E
:1050800000231A461946FDF767FC0020DAE700BF47
:10509000F03F002000B58BB00023009306E001A88C
:1050A000FFF790FF32216846FEF750FAFEF74AF903
:1050B00000901E4B1868052201A9FDF785FE012806
:1050C000F0D11A4B1868052201A9FDF703FD019BD9
:1050D00040F24262934225D040F243629342DED0D6
:1050E00040F241629342DDD1104BD86C0521FDF7AF
:1050F0009DFD0128D6D19DF819209DF81830C2F3E6
:1051000080000A4903EB43030B4483F84800C2F3D1
:10511000400283F84720C86C00231A461946FDF761
:105120001BFCBFE701A8FFF771FFBBE7F03F0020C2
:10513000F0B44FF6FF7C002426E00132D2B2052AFB
:1051400019D804EB44056B0013442833134D05EBC9
:1051500043039B889BB2002BEFD00136F6B204EBE1
:1051600044056B00134428330C4D05EB43039B8827
:105170001F44BFB2E1E797FBF6F620F814606645DE
:1051800000D2B4460134E4B2012C03D800263746DD
:105190003246D4E7A1F800C0F0BC7047F03F0020D1
:1051A00000B589B00023039304930222059240F2D4
:1051B000036201928DF818008DF81910044A5068A6
:1051C000052201A9FDF7C8FB09B05DF804FB00BF8B
:1051D000F03F002010B584B0002303932BE00DF1C5
:1051E000060102A8FFF7A4FF002405E000212046E5
:1051F000FFF7D6FF0134E4B2012C17D804AB03EB60
:10520000440333F8083CBDF806209B1A1BB2642BFC
:10521000ECDD01212046FFF7C3FFEBE7002120462C
:10522000FFF7BEFF0134E4B2012CF7D94FF47A71D5
:1052300003A8FEF78BF9FEF785F80390034B93F86C
:105240002D30DBB2012BCAD00024EDE7F03F002067
:105250002DE9F04F85B000230393DFF8DCA11E2376
:105260008AF8D03001238AF8D1300C238AF8D23062
:10527000DAF8B030DAF8AC30BAF8C0309AF8D13099
:105280009AF8D220D2B201929AF8D02003FB02F30E
:10529000C3EB0313C3EB03131A0193B200939AF801
:1052A000A8004008FBF7E6F806460F469AF8A90062
:1052B0004008FBF7DFF8804689469AF8AA004008C4
:1052C000FBF7D8F804460D46BAF81EB0019A02FB67
:1052D0000BFBBAF81C3002FB03F3019356E00028E5
:1052E00080F28D80019B934229D3FBF7C3F84EA334
:1052F000D3E90023FBF728F906460F460098FBF791
:10530000B9F802460B4630463946FBF747FA002209
:10531000474BFBF743FA02460B4620462946FAF76D
:105320005BFF04460D4602460B4640464946FAF7E7
:1053300053FF06460F4662E0A046A9465FE0B0462E
:10534000B9465CE03B48FBF7A7F802460B463046FF
:105350003946FBF7F9F806460F46DFF8DCA00023D4
:105360008AF8A83040464946FBF700FB4000C0B22F
:105370008AF8A90020462946FBF7F8FA4000C0B297
:105380008AF8AA00642103A8FEF7E0F82A4BD3F8B4
:10539000B000B0F52F7F01DBD3F8B400264BD3F873
:1053A000AC20B3F8C0A00FFA8AFA002897DD934525
:1053B000C2D8FBF75FF81CA3D3E90023FBF7C4F8BE
:1053C00006460F460098FBF755F802460B46304656
:1053D0003946FBF7E3F90022154BFBF7DFF90246EC
:1053E0000B4620462946FAF7F9FE04460D460246CA
:1053F0000B4640464946FAF7EFFE06460F461AF1BD
:10540000090F9FDBBAF1000F07DDBAF1190F06DDB6
:10541000BAF12D0F06DC094895E7094893E74FF0EC
:105420007E5090E707488EE79A9999999999B93FE4
:10543000000024409A99193FF03F00203333733F16
:10544000CDCC4C3F6666663F00B591B00023089313
:1054500003E0052108A8FEF779F8FDF773FF08902F
:10546000134BD868052209A9FDF7AEFC0128F0D13D
:105470000F4BD868052209A9FDF72CFB0D9B06935D
:105480000B9B04930C9B0593099B029300238DF8BF
:105490001C30084B5868FCF7C2F80028F9D001AB63
:1054A0000EAA02A903484068FCF744F8D1E700BF00
:1054B000F03F0020D03F002000B58BB04FF44443B4
:1054C00000934CF2404301934CF2204302934CF280
:1054D00060430393002304930593012306930893E9
:1054E0006946FBF763FF0BB05DF804FB037D022BFD
:1054F00001D00020704710B50446154B986B05216C
:10550000FDF794FB012801D0012010BD627DC2F39C
:10551000C0020F4B83F82B20627DC2F3800283F818
:105520002A20627DC2F3400283F82920627D02F0C6
:10553000010283F82820627DC2F3001283F82C2038
:10554000986B00231A461946FDF706FA0020DCE79F
:10555000F03F002010B504463A4B986B0521FDF74B
:1055600065FB012801D0012010BD237D112B11D82E
:10557000DFE803F0091921282F363D444B5259101A
:10558000101010101060627DA37D43EA02231BB24D
:105590002C4A13832B4B986B00231A461946FDF7B0
:1055A000DBF90020E0E7627DA37D43EA02231BB222
:1055B000244A5383EEE7627DA37D43EA0223214A16
:1055C0009383E7E7627DA37D43EA02231D4AD383E9
:1055D000E0E7627DA37D43EA02231A4A1362D9E71A
:1055E000627DA37D43EA0223164A5362D2E7627DBD
:1055F000A37D43EA0223134AD385CBE7627DA37DD3
:1056000043EA02230F4A1386C4E7627DA37D43EA7F
:1056100002230C4A5386BDE7627DA37D43EA022341
:10562000084A9386B6E7627DA37D43EA0223054AD2
:10563000D386AFE794F91630DBB2024A82F82D30F8
:10564000A8E700BFF03F002000B589B00023039316
:1056500004930323059340F20D630193037D8DF8BA
:105660001830112B13D8DFE803F009202A333C450A
:105670004E576069727B848D98A3AFD2694A138BB1
:1056800043F307238DF81930138B8DF81A30654BCF
:10569000D8680023642201A9FDF75EF9012800F013
:1056A000BF80012009B05DF804FB5E4A538B43F3D1
:1056B00007238DF81930538B8DF81A30E7E7594AD4
:1056C000938B1B0A8DF81930938B8DF81A30DEE717
:1056D000544AD38B1B0A8DF81930D38B8DF81A30AE
:1056E000D5E7504A136A1B128DF81930136A8DF8EA
:1056F0001A30CCE74B4A536A1B128DF81930536AA3
:105700008DF81A30C3E7474AD38D1B0A8DF819303C
:10571000D38D8DF81A30BAE7424A138E1B0A8DF8E2
:105720001930138E8DF81A30B1E73E4A538E1B0A9A
:105730008DF81930538E8DF81A30A8E7394A938EB8
:105740001B0A8DF81930938E8DF81A309FE7354A71
:10575000D38E1B0A8DF81930D38E8DF81A3096E748
:10576000304B93F8A83000238DF819308DF81A309B
:105770008DE72C4B93F8A93000238DF819308DF864
:105780001A3084E7274AD2F8AC301B0A8DF819305A
:10579000D2F8AC308DF81A3079E7224AD2F8B4301A
:1057A0001B128DF81930D2F8B4308DF81A306EE72C
:1057B0001C4AB2F8BA3043F307238DF81930B2F817
:1057C000BA308DF81A3062E7164A92F8283003F0A2
:1057D000010392F82910490001F002010B4392F8ED
:1057E0002A10890001F004010B4392F82B10C90024
:1057F00001F008010B4392F82C20120102F0100274
:1058000013438DF8193000238DF81A303FE7054B0C
:1058100093F82D308DF8193000238DF81A3036E7C3
:1058200000203FE7F03F002000B58BB0002300933D
:1058300006E001A8FFF75AFE05216846FDF786FE3F
:10584000FDF780FD00901C4B9868052201A9FDF72B
:10585000BBFA0128F0D1184B9868052201A9FDF781
:1058600039F9019BA3F5C463032BE5D801A252F8D3
:1058700023F000BF33580008A958000885580008D5
:10588000B15800080C4BD86C0521FDF7CFF9012861
:10589000D2D1094B012283F83C20D86C00231A4650
:1058A0001946FDF759F8C7E701A8FFF753FEC3E70C
:1058B00001A8FFF7C9FEBFE7F03F002000B589B09F
:1058C0000023039304930822059240F20A62019296
:1058D0001A4A92F8A8108DF81810D2F8AC10C1F33B
:1058E00007418DF81910D2F8AC10C1F307218DF8DB
:1058F0001A10D2F8AC108DF81B10D2F8B0100912A3
:105900008DF81C10D2F8B0108DF81D10B2F8BA1036
:1059100041F307218DF81E10B2F8BA108DF81F1050
:10592000D068642201A9FDF717F8012803D00120EF
:1059300009B05DF804FB0020FAE700BFF03F00204B
:10594000F0B589B0002303930493032900F2BA81D0
:10595000DFE811F07000D4004201B00100228DF8A0
:105960001C208DF81D2039E000238DF81E308DF8A5
:105970001F304DE00334E4B2052C54D808230593BE
:1059800040F2056301938DF81850CC4BA3FB042320
:105990005B088DF8193029462346680028444200E8
:1059A00022442832C64800EB42029088000A8DF853
:1059B0001A0092888DF81B20671C052FCEDC68002A
:1059C000284442003A442832BD4800EB4202908805
:1059D000000A8DF81C0092888DF81D209F1C052F51
:1059E000C2DCB7484A0002EB010C4FEA4C039C466C
:1059F0003B44283300EB43039B881B0A8DF81E3081
:105A000063463B44283300EB43039B888DF81F30EB
:105A1000AB4BD8680023642201A9FCF79DFF012845
:105A2000A8D00126A6E70135EDB2012D00F24B8189
:105A30000024A1E700252E46F7E70823059340F24E
:105A4000066301938DF818509C4BA3FB04235B085D
:105A50008DF819302846234604EB450202F14C012B
:105A6000974A02EB4102118941F307218DF81A1080
:105A700012898DF81B20621C012A33DC02EB4502DF
:105A80004C328F4901EB4202118941F307218DF815
:105A90001C1012898DF81D200233012B28DC03EB2A
:105AA00040034C33864A02EB43031A8942F3072230
:105AB0008DF81E201B898DF81F30814BD86800237C
:105AC000642201A9FCF748FF012800D00126033415
:105AD000E4B2012CB1D90135EDB2012D00F2F38011
